{
  "_format": "hh-sol-artifact-1",
  "contractName": "PFLibrary",
  "sourceName": "contracts/PFLibrary.sol",
  "abi": [
    {
      "inputs": [
        {
          "internalType": "address",
          "name": "_poxAddress",
          "type": "address"
        }
      ],
      "stateMutability": "nonpayable",
      "type": "constructor"
    },
    {
      "inputs": [
        {
          "internalType": "address",
          "name": "sender",
          "type": "address"
        },
        {
          "internalType": "uint256",
          "name": "tokenId",
          "type": "uint256"
        },
        {
          "internalType": "address",
          "name": "owner",
          "type": "address"
        }
      ],
      "name": "ERC721IncorrectOwner",
      "type": "error"
    },
    {
      "inputs": [
        {
          "internalType": "address",
          "name": "operator",
          "type": "address"
        },
        {
          "internalType": "uint256",
          "name": "tokenId",
          "type": "uint256"
        }
      ],
      "name": "ERC721InsufficientApproval",
      "type": "error"
    },
    {
      "inputs": [
        {
          "internalType": "address",
          "name": "approver",
          "type": "address"
        }
      ],
      "name": "ERC721InvalidApprover",
      "type": "error"
    },
    {
      "inputs": [
        {
          "internalType": "address",
          "name": "operator",
          "type": "address"
        }
      ],
      "name": "ERC721InvalidOperator",
      "type": "error"
    },
    {
      "inputs": [
        {
          "internalType": "address",
          "name": "owner",
          "type": "address"
        }
      ],
      "name": "ERC721InvalidOwner",
      "type": "error"
    },
    {
      "inputs": [
        {
          "internalType": "address",
          "name": "receiver",
          "type": "address"
        }
      ],
      "name": "ERC721InvalidReceiver",
      "type": "error"
    },
    {
      "inputs": [
        {
          "internalType": "address",
          "name": "sender",
          "type": "address"
        }
      ],
      "name": "ERC721InvalidSender",
      "type": "error"
    },
    {
      "inputs": [
        {
          "internalType": "uint256",
          "name": "tokenId",
          "type": "uint256"
        }
      ],
      "name": "ERC721NonexistentToken",
      "type": "error"
    },
    {
      "anonymous": false,
      "inputs": [
        {
          "indexed": true,
          "internalType": "address",
          "name": "owner",
          "type": "address"
        },
        {
          "indexed": true,
          "internalType": "address",
          "name": "approved",
          "type": "address"
        },
        {
          "indexed": true,
          "internalType": "uint256",
          "name": "tokenId",
          "type": "uint256"
        }
      ],
      "name": "Approval",
      "type": "event"
    },
    {
      "anonymous": false,
      "inputs": [
        {
          "indexed": true,
          "internalType": "address",
          "name": "owner",
          "type": "address"
        },
        {
          "indexed": true,
          "internalType": "address",
          "name": "operator",
          "type": "address"
        },
        {
          "indexed": false,
          "internalType": "bool",
          "name": "approved",
          "type": "bool"
        }
      ],
      "name": "ApprovalForAll",
      "type": "event"
    },
    {
      "anonymous": false,
      "inputs": [
        {
          "indexed": false,
          "internalType": "uint256",
          "name": "_fromTokenId",
          "type": "uint256"
        },
        {
          "indexed": false,
          "internalType": "uint256",
          "name": "_toTokenId",
          "type": "uint256"
        }
      ],
      "name": "BatchMetadataUpdate",
      "type": "event"
    },
    {
      "anonymous": false,
      "inputs": [
        {
          "indexed": false,
          "internalType": "uint256",
          "name": "_tokenId",
          "type": "uint256"
        }
      ],
      "name": "MetadataUpdate",
      "type": "event"
    },
    {
      "anonymous": false,
      "inputs": [
        {
          "indexed": true,
          "internalType": "address",
          "name": "from",
          "type": "address"
        },
        {
          "indexed": true,
          "internalType": "address",
          "name": "to",
          "type": "address"
        },
        {
          "indexed": true,
          "internalType": "uint256",
          "name": "tokenId",
          "type": "uint256"
        }
      ],
      "name": "Transfer",
      "type": "event"
    },
    {
      "inputs": [
        {
          "internalType": "address",
          "name": "authorAddress",
          "type": "address"
        },
        {
          "internalType": "string",
          "name": "tokenURI",
          "type": "string"
        },
        {
          "internalType": "uint256",
          "name": "poxPrice",
          "type": "uint256"
        }
      ],
      "name": "addBook",
      "outputs": [],
      "stateMutability": "nonpayable",
      "type": "function"
    },
    {
      "inputs": [
        {
          "internalType": "address",
          "name": "to",
          "type": "address"
        },
        {
          "internalType": "uint256",
          "name": "tokenId",
          "type": "uint256"
        }
      ],
      "name": "approve",
      "outputs": [],
      "stateMutability": "nonpayable",
      "type": "function"
    },
    {
      "inputs": [
        {
          "internalType": "address",
          "name": "owner",
          "type": "address"
        }
      ],
      "name": "balanceOf",
      "outputs": [
        {
          "internalType": "uint256",
          "name": "",
          "type": "uint256"
        }
      ],
      "stateMutability": "view",
      "type": "function"
    },
    {
      "inputs": [],
      "name": "bookCount",
      "outputs": [
        {
          "internalType": "uint256",
          "name": "",
          "type": "uint256"
        }
      ],
      "stateMutability": "view",
      "type": "function"
    },
    {
      "inputs": [
        {
          "internalType": "uint256",
          "name": "",
          "type": "uint256"
        }
      ],
      "name": "books",
      "outputs": [
        {
          "internalType": "address",
          "name": "author",
          "type": "address"
        },
        {
          "internalType": "string",
          "name": "tokenURI",
          "type": "string"
        },
        {
          "internalType": "uint256",
          "name": "price",
          "type": "uint256"
        },
        {
          "internalType": "uint256",
          "name": "totalSupply",
          "type": "uint256"
        }
      ],
      "stateMutability": "view",
      "type": "function"
    },
    {
      "inputs": [
        {
          "internalType": "uint256",
          "name": "tokenId",
          "type": "uint256"
        }
      ],
      "name": "getApproved",
      "outputs": [
        {
          "internalType": "address",
          "name": "",
          "type": "address"
        }
      ],
      "stateMutability": "view",
      "type": "function"
    },
    {
      "inputs": [
        {
          "internalType": "uint256",
          "name": "bookId",
          "type": "uint256"
        }
      ],
      "name": "getBook",
      "outputs": [
        {
          "internalType": "address",
          "name": "author",
          "type": "address"
        },
        {
          "internalType": "string",
          "name": "tokenURI",
          "type": "string"
        },
        {
          "internalType": "uint256",
          "name": "poxPrice",
          "type": "uint256"
        },
        {
          "internalType": "uint256",
          "name": "totalSupply",
          "type": "uint256"
        }
      ],
      "stateMutability": "view",
      "type": "function"
    },
    {
      "inputs": [
        {
          "internalType": "address",
          "name": "owner",
          "type": "address"
        },
        {
          "internalType": "address",
          "name": "operator",
          "type": "address"
        }
      ],
      "name": "isApprovedForAll",
      "outputs": [
        {
          "internalType": "bool",
          "name": "",
          "type": "bool"
        }
      ],
      "stateMutability": "view",
      "type": "function"
    },
    {
      "inputs": [
        {
          "internalType": "uint256",
          "name": "bookId",
          "type": "uint256"
        },
        {
          "internalType": "address",
          "name": "recipient",
          "type": "address"
        }
      ],
      "name": "mintBook",
      "outputs": [],
      "stateMutability": "nonpayable",
      "type": "function"
    },
    {
      "inputs": [],
      "name": "name",
      "outputs": [
        {
          "internalType": "string",
          "name": "",
          "type": "string"
        }
      ],
      "stateMutability": "view",
      "type": "function"
    },
    {
      "inputs": [
        {
          "internalType": "uint256",
          "name": "tokenId",
          "type": "uint256"
        }
      ],
      "name": "ownerOf",
      "outputs": [
        {
          "internalType": "address",
          "name": "",
          "type": "address"
        }
      ],
      "stateMutability": "view",
      "type": "function"
    },
    {
      "inputs": [],
      "name": "poxToken",
      "outputs": [
        {
          "internalType": "contract PFToken",
          "name": "",
          "type": "address"
        }
      ],
      "stateMutability": "view",
      "type": "function"
    },
    {
      "inputs": [
        {
          "internalType": "address",
          "name": "from",
          "type": "address"
        },
        {
          "internalType": "address",
          "name": "to",
          "type": "address"
        },
        {
          "internalType": "uint256",
          "name": "tokenId",
          "type": "uint256"
        }
      ],
      "name": "safeTransferFrom",
      "outputs": [],
      "stateMutability": "nonpayable",
      "type": "function"
    },
    {
      "inputs": [
        {
          "internalType": "address",
          "name": "from",
          "type": "address"
        },
        {
          "internalType": "address",
          "name": "to",
          "type": "address"
        },
        {
          "internalType": "uint256",
          "name": "tokenId",
          "type": "uint256"
        },
        {
          "internalType": "bytes",
          "name": "data",
          "type": "bytes"
        }
      ],
      "name": "safeTransferFrom",
      "outputs": [],
      "stateMutability": "nonpayable",
      "type": "function"
    },
    {
      "inputs": [
        {
          "internalType": "address",
          "name": "operator",
          "type": "address"
        },
        {
          "internalType": "bool",
          "name": "approved",
          "type": "bool"
        }
      ],
      "name": "setApprovalForAll",
      "outputs": [],
      "stateMutability": "nonpayable",
      "type": "function"
    },
    {
      "inputs": [
        {
          "internalType": "bytes4",
          "name": "interfaceId",
          "type": "bytes4"
        }
      ],
      "name": "supportsInterface",
      "outputs": [
        {
          "internalType": "bool",
          "name": "",
          "type": "bool"
        }
      ],
      "stateMutability": "view",
      "type": "function"
    },
    {
      "inputs": [],
      "name": "symbol",
      "outputs": [
        {
          "internalType": "string",
          "name": "",
          "type": "string"
        }
      ],
      "stateMutability": "view",
      "type": "function"
    },
    {
      "inputs": [
        {
          "internalType": "uint256",
          "name": "tokenId",
          "type": "uint256"
        }
      ],
      "name": "tokenURI",
      "outputs": [
        {
          "internalType": "string",
          "name": "",
          "type": "string"
        }
      ],
      "stateMutability": "view",
      "type": "function"
    },
    {
      "inputs": [],
      "name": "totalBooks",
      "outputs": [
        {
          "internalType": "uint256",
          "name": "",
          "type": "uint256"
        }
      ],
      "stateMutability": "view",
      "type": "function"
    },
    {
      "inputs": [
        {
          "internalType": "address",
          "name": "from",
          "type": "address"
        },
        {
          "internalType": "address",
          "name": "to",
          "type": "address"
        },
        {
          "internalType": "uint256",
          "name": "tokenId",
          "type": "uint256"
        }
      ],
      "name": "transferFrom",
      "outputs": [],
      "stateMutability": "nonpayable",
      "type": "function"
    }
  ],
  "bytecode": "0x60806040523480156200001157600080fd5b50604051620031e8380380620031e883398181016040528101906200003791906200017b565b6040518060400160405280600981526020017f50464c69627261727900000000000000000000000000000000000000000000008152506040518060400160405280600381526020017f50464c00000000000000000000000000000000000000000000000000000000008152508160009081620000b4919062000427565b508060019081620000c6919062000427565b50505080600760006101000a81548173ffffffffffffffffffffffffffffffffffffffff021916908373ffffffffffffffffffffffffffffffffffffffff160217905550506200050e565b600080fd5b600073ffffffffffffffffffffffffffffffffffffffff82169050919050565b6000620001438262000116565b9050919050565b620001558162000136565b81146200016157600080fd5b50565b60008151905062000175816200014a565b92915050565b60006020828403121562000194576200019362000111565b5b6000620001a48482850162000164565b91505092915050565b600081519050919050565b7f4e487b7100000000000000000000000000000000000000000000000000000000600052604160045260246000fd5b7f4e487b7100000000000000000000000000000000000000000000000000000000600052602260045260246000fd5b600060028204905060018216806200022f57607f821691505b602082108103620002455762000244620001e7565b5b50919050565b60008190508160005260206000209050919050565b60006020601f8301049050919050565b600082821b905092915050565b600060088302620002af7fffffffffffffffffffffffffffffffffffffffffffffffffffffffffffffffff8262000270565b620002bb868362000270565b95508019841693508086168417925050509392505050565b6000819050919050565b6000819050919050565b60006200030862000302620002fc84620002d3565b620002dd565b620002d3565b9050919050565b6000819050919050565b6200032483620002e7565b6200033c62000333826200030f565b8484546200027d565b825550505050565b600090565b6200035362000344565b6200036081848462000319565b505050565b5b8181101562000388576200037c60008262000349565b60018101905062000366565b5050565b601f821115620003d757620003a1816200024b565b620003ac8462000260565b81016020851015620003bc578190505b620003d4620003cb8562000260565b83018262000365565b50505b505050565b600082821c905092915050565b6000620003fc60001984600802620003dc565b1980831691505092915050565b6000620004178383620003e9565b9150826002028217905092915050565b6200043282620001ad565b67ffffffffffffffff8111156200044e576200044d620001b8565b5b6200045a825462000216565b620004678282856200038c565b600060209050601f8311600181146200049f57600084156200048a578287015190505b62000496858262000409565b86555062000506565b601f198416620004af866200024b565b60005b82811015620004d957848901518255600182019150602085019450602081019050620004b2565b86831015620004f95784890151620004f5601f891682620003e9565b8355505b6001600288020188555050505b505050505050565b612cca806200051e6000396000f3fe608060405234801561001057600080fd5b506004361061012c5760003560e01c80636ec4f4bf116100ad578063b905ad7811610071578063b905ad7814610342578063c87b56dd14610360578063d89c10ae14610390578063e0ff5b8b146103ae578063e985e9c5146103e15761012c565b80636ec4f4bf1461029e57806370a08231146102bc57806395d89b41146102ec578063a22cb4651461030a578063b88d4fde146103265761012c565b806342842e0e116100f457806342842e0e146101e7578063537595d0146102035780635d62b8af1461021f5780636352211e1461023b578063687440461461026b5761012c565b806301ffc9a71461013157806306fdde0314610161578063081812fc1461017f578063095ea7b3146101af57806323b872dd146101cb575b600080fd5b61014b60048036038101906101469190611ec2565b610411565b6040516101589190611f0a565b60405180910390f35b610169610472565b6040516101769190611fb5565b60405180910390f35b6101996004803603810190610194919061200d565b610504565b6040516101a6919061207b565b60405180910390f35b6101c960048036038101906101c491906120c2565b610520565b005b6101e560048036038101906101e09190612102565b610536565b005b61020160048036038101906101fc9190612102565b610638565b005b61021d6004803603810190610218919061228a565b610658565b005b610239600480360381019061023491906122f9565b610736565b005b6102556004803603810190610250919061200d565b6109d6565b604051610262919061207b565b60405180910390f35b6102856004803603810190610280919061200d565b6109e8565b6040516102959493929190612348565b60405180910390f35b6102a6610ac0565b6040516102b39190612394565b60405180910390f35b6102d660048036038101906102d191906123af565b610aca565b6040516102e39190612394565b60405180910390f35b6102f4610b84565b6040516103019190611fb5565b60405180910390f35b610324600480360381019061031f9190612408565b610c16565b005b610340600480360381019061033b91906124e9565b610c2c565b005b61034a610c49565b6040516103579190612394565b60405180910390f35b61037a6004803603810190610375919061200d565b610c4f565b6040516103879190611fb5565b60405180910390f35b610398610d62565b6040516103a591906125cb565b60405180910390f35b6103c860048036038101906103c3919061200d565b610d88565b6040516103d89493929190612348565b60405180910390f35b6103fb60048036038101906103f691906125e6565b610eda565b6040516104089190611f0a565b60405180910390f35b6000634906490660e01b7bffffffffffffffffffffffffffffffffffffffffffffffffffffffff1916827bffffffffffffffffffffffffffffffffffffffffffffffffffffffff1916148061046b575061046a82610f6e565b5b9050919050565b60606000805461048190612655565b80601f01602080910402602001604051908101604052809291908181526020018280546104ad90612655565b80156104fa5780601f106104cf576101008083540402835291602001916104fa565b820191906000526020600020905b8154815290600101906020018083116104dd57829003601f168201915b5050505050905090565b600061050f82611050565b50610519826110d8565b9050919050565b610532828261052d611115565b61111d565b5050565b600073ffffffffffffffffffffffffffffffffffffffff168273ffffffffffffffffffffffffffffffffffffffff16036105a85760006040517f64a0ae9200000000000000000000000000000000000000000000000000000000815260040161059f919061207b565b60405180910390fd5b60006105bc83836105b7611115565b61112f565b90508373ffffffffffffffffffffffffffffffffffffffff168173ffffffffffffffffffffffffffffffffffffffff1614610632578382826040517f64283d7b00000000000000000000000000000000000000000000000000000000815260040161062993929190612686565b60405180910390fd5b50505050565b61065383838360405180602001604052806000815250610c2c565b505050565b6008600081548092919061066b906126ec565b919050555060405180608001604052808473ffffffffffffffffffffffffffffffffffffffff168152602001838152602001828152602001600081525060096000600854815260200190815260200160002060008201518160000160006101000a81548173ffffffffffffffffffffffffffffffffffffffff021916908373ffffffffffffffffffffffffffffffffffffffff160217905550602082015181600101908161071991906128d6565b506040820151816002015560608201518160030155905050505050565b600060096000848152602001908152602001600020600101805461075990612655565b90500361079b576040517f08c379a0000000000000000000000000000000000000000000000000000000008152600401610792906129f4565b60405180910390fd5b600760009054906101000a900473ffffffffffffffffffffffffffffffffffffffff1673ffffffffffffffffffffffffffffffffffffffff166323b872dd336009600086815260200190815260200160002060000160009054906101000a900473ffffffffffffffffffffffffffffffffffffffff1660096000878152602001908152602001600020600201546040518463ffffffff1660e01b815260040161084693929190612a14565b6020604051808303816000875af1158015610865573d6000803e3d6000fd5b505050506040513d601f19601f820116820180604052508101906108899190612a60565b6108c8576040517f08c379a00000000000000000000000000000000000000000000000000000000081526004016108bf90612ad9565b60405180910390fd5b6009600083815260200190815260200160002060030160008154809291906108ef906126ec565b9190505550610914816009600085815260200190815260200160002060030154611349565b6109d2600960008481526020019081526020016000206003015460096000858152602001908152602001600020600101805461094f90612655565b80601f016020809104026020016040519081016040528092919081815260200182805461097b90612655565b80156109c85780601f1061099d576101008083540402835291602001916109c8565b820191906000526020600020905b8154815290600101906020018083116109ab57829003601f168201915b5050505050611442565b5050565b60006109e182611050565b9050919050565b60096020528060005260406000206000915090508060000160009054906101000a900473ffffffffffffffffffffffffffffffffffffffff1690806001018054610a3190612655565b80601f0160208091040260200160405190810160405280929190818152602001828054610a5d90612655565b8015610aaa5780601f10610a7f57610100808354040283529160200191610aaa565b820191906000526020600020905b815481529060010190602001808311610a8d57829003601f168201915b5050505050908060020154908060030154905084565b6000600854905090565b60008073ffffffffffffffffffffffffffffffffffffffff168273ffffffffffffffffffffffffffffffffffffffff1603610b3d5760006040517f89c62b64000000000000000000000000000000000000000000000000000000008152600401610b34919061207b565b60405180910390fd5b600360008373ffffffffffffffffffffffffffffffffffffffff1673ffffffffffffffffffffffffffffffffffffffff168152602001908152602001600020549050919050565b606060018054610b9390612655565b80601f0160208091040260200160405190810160405280929190818152602001828054610bbf90612655565b8015610c0c5780601f10610be157610100808354040283529160200191610c0c565b820191906000526020600020905b815481529060010190602001808311610bef57829003601f168201915b5050505050905090565b610c28610c21611115565b838361149e565b5050565b610c37848484610536565b610c438484848461160d565b50505050565b60085481565b6060610c5a82611050565b506000600660008481526020019081526020016000208054610c7b90612655565b80601f0160208091040260200160405190810160405280929190818152602001828054610ca790612655565b8015610cf45780601f10610cc957610100808354040283529160200191610cf4565b820191906000526020600020905b815481529060010190602001808311610cd757829003601f168201915b505050505090506000610d056117c4565b90506000815103610d1a578192505050610d5d565b600082511115610d4f578082604051602001610d37929190612b35565b60405160208183030381529060405292505050610d5d565b610d58846117db565b925050505b919050565b600760009054906101000a900473ffffffffffffffffffffffffffffffffffffffff1681565b600060606000806000600960008781526020019081526020016000206001018054610db290612655565b905003610df4576040517f08c379a0000000000000000000000000000000000000000000000000000000008152600401610deb906129f4565b60405180910390fd5b60006009600087815260200190815260200160002090508060000160009054906101000a900473ffffffffffffffffffffffffffffffffffffffff168160010182600201548360030154828054610e4a90612655565b80601f0160208091040260200160405190810160405280929190818152602001828054610e7690612655565b8015610ec35780601f10610e9857610100808354040283529160200191610ec3565b820191906000526020600020905b815481529060010190602001808311610ea657829003601f168201915b505050505092509450945094509450509193509193565b6000600560008473ffffffffffffffffffffffffffffffffffffffff1673ffffffffffffffffffffffffffffffffffffffff16815260200190815260200160002060008373ffffffffffffffffffffffffffffffffffffffff1673ffffffffffffffffffffffffffffffffffffffff16815260200190815260200160002060009054906101000a900460ff16905092915050565b60007f80ac58cd000000000000000000000000000000000000000000000000000000007bffffffffffffffffffffffffffffffffffffffffffffffffffffffff1916827bffffffffffffffffffffffffffffffffffffffffffffffffffffffff1916148061103957507f5b5e139f000000000000000000000000000000000000000000000000000000007bffffffffffffffffffffffffffffffffffffffffffffffffffffffff1916827bffffffffffffffffffffffffffffffffffffffffffffffffffffffff1916145b80611049575061104882611844565b5b9050919050565b60008061105c836118ae565b9050600073ffffffffffffffffffffffffffffffffffffffff168173ffffffffffffffffffffffffffffffffffffffff16036110cf57826040517f7e2732890000000000000000000000000000000000000000000000000000000081526004016110c69190612394565b60405180910390fd5b80915050919050565b60006004600083815260200190815260200160002060009054906101000a900473ffffffffffffffffffffffffffffffffffffffff169050919050565b600033905090565b61112a83838360016118eb565b505050565b60008061113b846118ae565b9050600073ffffffffffffffffffffffffffffffffffffffff168373ffffffffffffffffffffffffffffffffffffffff161461117d5761117c818486611ab0565b5b600073ffffffffffffffffffffffffffffffffffffffff168173ffffffffffffffffffffffffffffffffffffffff161461120e576111bf6000856000806118eb565b6001600360008373ffffffffffffffffffffffffffffffffffffffff1673ffffffffffffffffffffffffffffffffffffffff168152602001908152602001600020600082825403925050819055505b600073ffffffffffffffffffffffffffffffffffffffff168573ffffffffffffffffffffffffffffffffffffffff1614611291576001600360008773ffffffffffffffffffffffffffffffffffffffff1673ffffffffffffffffffffffffffffffffffffffff168152602001908152602001600020600082825401925050819055505b846002600086815260200190815260200160002060006101000a81548173ffffffffffffffffffffffffffffffffffffffff021916908373ffffffffffffffffffffffffffffffffffffffff160217905550838573ffffffffffffffffffffffffffffffffffffffff168273ffffffffffffffffffffffffffffffffffffffff167fddf252ad1be2c89b69c2b068fc378daa952ba7f163c4a11628f55a4df523b3ef60405160405180910390a4809150509392505050565b600073ffffffffffffffffffffffffffffffffffffffff168273ffffffffffffffffffffffffffffffffffffffff16036113bb5760006040517f64a0ae920000000000000000000000000000000000000000000000000000000081526004016113b2919061207b565b60405180910390fd5b60006113c98383600061112f565b9050600073ffffffffffffffffffffffffffffffffffffffff168173ffffffffffffffffffffffffffffffffffffffff161461143d5760006040517f73c6ac6e000000000000000000000000000000000000000000000000000000008152600401611434919061207b565b60405180910390fd5b505050565b8060066000848152602001908152602001600020908161146291906128d6565b507ff8e1a15aba9398e019f0b49df1a4fde98ee17ae345cb5f6b5e2c27f5033e8ce7826040516114929190612394565b60405180910390a15050565b600073ffffffffffffffffffffffffffffffffffffffff168273ffffffffffffffffffffffffffffffffffffffff160361150f57816040517f5b08ba18000000000000000000000000000000000000000000000000000000008152600401611506919061207b565b60405180910390fd5b80600560008573ffffffffffffffffffffffffffffffffffffffff1673ffffffffffffffffffffffffffffffffffffffff16815260200190815260200160002060008473ffffffffffffffffffffffffffffffffffffffff1673ffffffffffffffffffffffffffffffffffffffff16815260200190815260200160002060006101000a81548160ff0219169083151502179055508173ffffffffffffffffffffffffffffffffffffffff168373ffffffffffffffffffffffffffffffffffffffff167f17307eab39ab6107e8899845ad3d59bd9653f200f220920489ca2b5937696c31836040516116009190611f0a565b60405180910390a3505050565b60008373ffffffffffffffffffffffffffffffffffffffff163b11156117be578273ffffffffffffffffffffffffffffffffffffffff1663150b7a02611651611115565b8685856040518563ffffffff1660e01b81526004016116739493929190612bae565b6020604051808303816000875af19250505080156116af57506040513d601f19601f820116820180604052508101906116ac9190612c0f565b60015b611733573d80600081146116df576040519150601f19603f3d011682016040523d82523d6000602084013e6116e4565b606091505b50600081510361172b57836040517f64a0ae92000000000000000000000000000000000000000000000000000000008152600401611722919061207b565b60405180910390fd5b805181602001fd5b63150b7a0260e01b7bffffffffffffffffffffffffffffffffffffffffffffffffffffffff1916817bffffffffffffffffffffffffffffffffffffffffffffffffffffffff1916146117bc57836040517f64a0ae920000000000000000000000000000000000000000000000000000000081526004016117b3919061207b565b60405180910390fd5b505b50505050565b606060405180602001604052806000815250905090565b60606117e682611050565b5060006117f16117c4565b90506000815111611811576040518060200160405280600081525061183c565b8061181b84611b74565b60405160200161182c929190612b35565b6040516020818303038152906040525b915050919050565b60007f01ffc9a7000000000000000000000000000000000000000000000000000000007bffffffffffffffffffffffffffffffffffffffffffffffffffffffff1916827bffffffffffffffffffffffffffffffffffffffffffffffffffffffff1916149050919050565b60006002600083815260200190815260200160002060009054906101000a900473ffffffffffffffffffffffffffffffffffffffff169050919050565b80806119245750600073ffffffffffffffffffffffffffffffffffffffff168273ffffffffffffffffffffffffffffffffffffffff1614155b15611a5857600061193484611050565b9050600073ffffffffffffffffffffffffffffffffffffffff168373ffffffffffffffffffffffffffffffffffffffff161415801561199f57508273ffffffffffffffffffffffffffffffffffffffff168173ffffffffffffffffffffffffffffffffffffffff1614155b80156119b257506119b08184610eda565b155b156119f457826040517fa9fbf51f0000000000000000000000000000000000000000000000000000000081526004016119eb919061207b565b60405180910390fd5b8115611a5657838573ffffffffffffffffffffffffffffffffffffffff168273ffffffffffffffffffffffffffffffffffffffff167f8c5be1e5ebec7d5bd14f71427d1e84f3dd0314c0f7b2291e5b200ac8c7c3b92560405160405180910390a45b505b836004600085815260200190815260200160002060006101000a81548173ffffffffffffffffffffffffffffffffffffffff021916908373ffffffffffffffffffffffffffffffffffffffff16021790555050505050565b611abb838383611c42565b611b6f57600073ffffffffffffffffffffffffffffffffffffffff168373ffffffffffffffffffffffffffffffffffffffff1603611b3057806040517f7e273289000000000000000000000000000000000000000000000000000000008152600401611b279190612394565b60405180910390fd5b81816040517f177e802f000000000000000000000000000000000000000000000000000000008152600401611b66929190612c3c565b60405180910390fd5b505050565b606060006001611b8384611d03565b01905060008167ffffffffffffffff811115611ba257611ba161215f565b5b6040519080825280601f01601f191660200182016040528015611bd45781602001600182028036833780820191505090505b509050600082602001820190505b600115611c37578080600190039150507f3031323334353637383961626364656600000000000000000000000000000000600a86061a8153600a8581611c2b57611c2a612c65565b5b04945060008503611be2575b819350505050919050565b60008073ffffffffffffffffffffffffffffffffffffffff168373ffffffffffffffffffffffffffffffffffffffff1614158015611cfa57508273ffffffffffffffffffffffffffffffffffffffff168473ffffffffffffffffffffffffffffffffffffffff161480611cbb5750611cba8484610eda565b5b80611cf957508273ffffffffffffffffffffffffffffffffffffffff16611ce1836110d8565b73ffffffffffffffffffffffffffffffffffffffff16145b5b90509392505050565b600080600090507a184f03e93ff9f4daa797ed6e38ed64bf6a1f0100000000000000008310611d61577a184f03e93ff9f4daa797ed6e38ed64bf6a1f0100000000000000008381611d5757611d56612c65565b5b0492506040810190505b6d04ee2d6d415b85acef81000000008310611d9e576d04ee2d6d415b85acef81000000008381611d9457611d93612c65565b5b0492506020810190505b662386f26fc100008310611dcd57662386f26fc100008381611dc357611dc2612c65565b5b0492506010810190505b6305f5e1008310611df6576305f5e1008381611dec57611deb612c65565b5b0492506008810190505b6127108310611e1b576127108381611e1157611e10612c65565b5b0492506004810190505b60648310611e3e5760648381611e3457611e33612c65565b5b0492506002810190505b600a8310611e4d576001810190505b80915050919050565b6000604051905090565b600080fd5b600080fd5b60007fffffffff0000000000000000000000000000000000000000000000000000000082169050919050565b611e9f81611e6a565b8114611eaa57600080fd5b50565b600081359050611ebc81611e96565b92915050565b600060208284031215611ed857611ed7611e60565b5b6000611ee684828501611ead565b91505092915050565b60008115159050919050565b611f0481611eef565b82525050565b6000602082019050611f1f6000830184611efb565b92915050565b600081519050919050565b600082825260208201905092915050565b60005b83811015611f5f578082015181840152602081019050611f44565b60008484015250505050565b6000601f19601f8301169050919050565b6000611f8782611f25565b611f918185611f30565b9350611fa1818560208601611f41565b611faa81611f6b565b840191505092915050565b60006020820190508181036000830152611fcf8184611f7c565b905092915050565b6000819050919050565b611fea81611fd7565b8114611ff557600080fd5b50565b60008135905061200781611fe1565b92915050565b60006020828403121561202357612022611e60565b5b600061203184828501611ff8565b91505092915050565b600073ffffffffffffffffffffffffffffffffffffffff82169050919050565b60006120658261203a565b9050919050565b6120758161205a565b82525050565b6000602082019050612090600083018461206c565b92915050565b61209f8161205a565b81146120aa57600080fd5b50565b6000813590506120bc81612096565b92915050565b600080604083850312156120d9576120d8611e60565b5b60006120e7858286016120ad565b92505060206120f885828601611ff8565b9150509250929050565b60008060006060848603121561211b5761211a611e60565b5b6000612129868287016120ad565b935050602061213a868287016120ad565b925050604061214b86828701611ff8565b9150509250925092565b600080fd5b600080fd5b7f4e487b7100000000000000000000000000000000000000000000000000000000600052604160045260246000fd5b61219782611f6b565b810181811067ffffffffffffffff821117156121b6576121b561215f565b5b80604052505050565b60006121c9611e56565b90506121d5828261218e565b919050565b600067ffffffffffffffff8211156121f5576121f461215f565b5b6121fe82611f6b565b9050602081019050919050565b82818337600083830152505050565b600061222d612228846121da565b6121bf565b9050828152602081018484840111156122495761224861215a565b5b61225484828561220b565b509392505050565b600082601f83011261227157612270612155565b5b813561228184826020860161221a565b91505092915050565b6000806000606084860312156122a3576122a2611e60565b5b60006122b1868287016120ad565b935050602084013567ffffffffffffffff8111156122d2576122d1611e65565b5b6122de8682870161225c565b92505060406122ef86828701611ff8565b9150509250925092565b600080604083850312156123105761230f611e60565b5b600061231e85828601611ff8565b925050602061232f858286016120ad565b9150509250929050565b61234281611fd7565b82525050565b600060808201905061235d600083018761206c565b818103602083015261236f8186611f7c565b905061237e6040830185612339565b61238b6060830184612339565b95945050505050565b60006020820190506123a96000830184612339565b92915050565b6000602082840312156123c5576123c4611e60565b5b60006123d3848285016120ad565b91505092915050565b6123e581611eef565b81146123f057600080fd5b50565b600081359050612402816123dc565b92915050565b6000806040838503121561241f5761241e611e60565b5b600061242d858286016120ad565b925050602061243e858286016123f3565b9150509250929050565b600067ffffffffffffffff8211156124635761246261215f565b5b61246c82611f6b565b9050602081019050919050565b600061248c61248784612448565b6121bf565b9050828152602081018484840111156124a8576124a761215a565b5b6124b384828561220b565b509392505050565b600082601f8301126124d0576124cf612155565b5b81356124e0848260208601612479565b91505092915050565b6000806000806080858703121561250357612502611e60565b5b6000612511878288016120ad565b9450506020612522878288016120ad565b935050604061253387828801611ff8565b925050606085013567ffffffffffffffff81111561255457612553611e65565b5b612560878288016124bb565b91505092959194509250565b6000819050919050565b600061259161258c6125878461203a565b61256c565b61203a565b9050919050565b60006125a382612576565b9050919050565b60006125b582612598565b9050919050565b6125c5816125aa565b82525050565b60006020820190506125e060008301846125bc565b92915050565b600080604083850312156125fd576125fc611e60565b5b600061260b858286016120ad565b925050602061261c858286016120ad565b9150509250929050565b7f4e487b7100000000000000000000000000000000000000000000000000000000600052602260045260246000fd5b6000600282049050600182168061266d57607f821691505b6020821081036126805761267f612626565b5b50919050565b600060608201905061269b600083018661206c565b6126a86020830185612339565b6126b5604083018461206c565b949350505050565b7f4e487b7100000000000000000000000000000000000000000000000000000000600052601160045260246000fd5b60006126f782611fd7565b91507fffffffffffffffffffffffffffffffffffffffffffffffffffffffffffffffff8203612729576127286126bd565b5b600182019050919050565b60008190508160005260206000209050919050565b60006020601f8301049050919050565b600082821b905092915050565b6000600883026127967fffffffffffffffffffffffffffffffffffffffffffffffffffffffffffffffff82612759565b6127a08683612759565b95508019841693508086168417925050509392505050565b60006127d36127ce6127c984611fd7565b61256c565b611fd7565b9050919050565b6000819050919050565b6127ed836127b8565b6128016127f9826127da565b848454612766565b825550505050565b600090565b612816612809565b6128218184846127e4565b505050565b5b818110156128455761283a60008261280e565b600181019050612827565b5050565b601f82111561288a5761285b81612734565b61286484612749565b81016020851015612873578190505b61288761287f85612749565b830182612826565b50505b505050565b600082821c905092915050565b60006128ad6000198460080261288f565b1980831691505092915050565b60006128c6838361289c565b9150826002028217905092915050565b6128df82611f25565b67ffffffffffffffff8111156128f8576128f761215f565b5b6129028254612655565b61290d828285612849565b600060209050601f831160018114612940576000841561292e578287015190505b61293885826128ba565b8655506129a0565b601f19841661294e86612734565b60005b8281101561297657848901518255600182019150602085019450602081019050612951565b86831015612993578489015161298f601f89168261289c565b8355505b6001600288020188555050505b505050505050565b7f426f6f6b20646f6573206e6f7420657869737400000000000000000000000000600082015250565b60006129de601383611f30565b91506129e9826129a8565b602082019050919050565b60006020820190508181036000830152612a0d816129d1565b9050919050565b6000606082019050612a29600083018661206c565b612a36602083018561206c565b612a436040830184612339565b949350505050565b600081519050612a5a816123dc565b92915050565b600060208284031215612a7657612a75611e60565b5b6000612a8484828501612a4b565b91505092915050565b7f546f6b656e207472616e73666572206661696c65640000000000000000000000600082015250565b6000612ac3601583611f30565b9150612ace82612a8d565b602082019050919050565b60006020820190508181036000830152612af281612ab6565b9050919050565b600081905092915050565b6000612b0f82611f25565b612b198185612af9565b9350612b29818560208601611f41565b80840191505092915050565b6000612b418285612b04565b9150612b4d8284612b04565b91508190509392505050565b600081519050919050565b600082825260208201905092915050565b6000612b8082612b59565b612b8a8185612b64565b9350612b9a818560208601611f41565b612ba381611f6b565b840191505092915050565b6000608082019050612bc3600083018761206c565b612bd0602083018661206c565b612bdd6040830185612339565b8181036060830152612bef8184612b75565b905095945050505050565b600081519050612c0981611e96565b92915050565b600060208284031215612c2557612c24611e60565b5b6000612c3384828501612bfa565b91505092915050565b6000604082019050612c51600083018561206c565b612c5e6020830184612339565b9392505050565b7f4e487b7100000000000000000000000000000000000000000000000000000000600052601260045260246000fdfea264697066735822122031a1948fd48cf14c4b0f905a95af86f74cab666bc36d6561d175ac322a1545ae64736f6c63430008180033",
  "linkReferences": {},
  "deployedLinkReferences": {}
}