{
  "_format": "hh-sol-artifact-1",
  "contractName": "PFLibrary",
  "sourceName": "contracts/PFLibrary.sol",
  "abi": [
    {
      "inputs": [
        {
          "internalType": "address",
          "name": "_poxAddress",
          "type": "address"
        }
      ],
      "stateMutability": "nonpayable",
      "type": "constructor"
    },
    {
      "inputs": [
        {
          "internalType": "address",
          "name": "sender",
          "type": "address"
        },
        {
          "internalType": "uint256",
          "name": "tokenId",
          "type": "uint256"
        },
        {
          "internalType": "address",
          "name": "owner",
          "type": "address"
        }
      ],
      "name": "ERC721IncorrectOwner",
      "type": "error"
    },
    {
      "inputs": [
        {
          "internalType": "address",
          "name": "operator",
          "type": "address"
        },
        {
          "internalType": "uint256",
          "name": "tokenId",
          "type": "uint256"
        }
      ],
      "name": "ERC721InsufficientApproval",
      "type": "error"
    },
    {
      "inputs": [
        {
          "internalType": "address",
          "name": "approver",
          "type": "address"
        }
      ],
      "name": "ERC721InvalidApprover",
      "type": "error"
    },
    {
      "inputs": [
        {
          "internalType": "address",
          "name": "operator",
          "type": "address"
        }
      ],
      "name": "ERC721InvalidOperator",
      "type": "error"
    },
    {
      "inputs": [
        {
          "internalType": "address",
          "name": "owner",
          "type": "address"
        }
      ],
      "name": "ERC721InvalidOwner",
      "type": "error"
    },
    {
      "inputs": [
        {
          "internalType": "address",
          "name": "receiver",
          "type": "address"
        }
      ],
      "name": "ERC721InvalidReceiver",
      "type": "error"
    },
    {
      "inputs": [
        {
          "internalType": "address",
          "name": "sender",
          "type": "address"
        }
      ],
      "name": "ERC721InvalidSender",
      "type": "error"
    },
    {
      "inputs": [
        {
          "internalType": "uint256",
          "name": "tokenId",
          "type": "uint256"
        }
      ],
      "name": "ERC721NonexistentToken",
      "type": "error"
    },
    {
      "anonymous": false,
      "inputs": [
        {
          "indexed": true,
          "internalType": "address",
          "name": "owner",
          "type": "address"
        },
        {
          "indexed": true,
          "internalType": "address",
          "name": "approved",
          "type": "address"
        },
        {
          "indexed": true,
          "internalType": "uint256",
          "name": "tokenId",
          "type": "uint256"
        }
      ],
      "name": "Approval",
      "type": "event"
    },
    {
      "anonymous": false,
      "inputs": [
        {
          "indexed": true,
          "internalType": "address",
          "name": "owner",
          "type": "address"
        },
        {
          "indexed": true,
          "internalType": "address",
          "name": "operator",
          "type": "address"
        },
        {
          "indexed": false,
          "internalType": "bool",
          "name": "approved",
          "type": "bool"
        }
      ],
      "name": "ApprovalForAll",
      "type": "event"
    },
    {
      "anonymous": false,
      "inputs": [
        {
          "indexed": false,
          "internalType": "uint256",
          "name": "_fromTokenId",
          "type": "uint256"
        },
        {
          "indexed": false,
          "internalType": "uint256",
          "name": "_toTokenId",
          "type": "uint256"
        }
      ],
      "name": "BatchMetadataUpdate",
      "type": "event"
    },
    {
      "anonymous": false,
      "inputs": [
        {
          "indexed": false,
          "internalType": "uint256",
          "name": "_tokenId",
          "type": "uint256"
        }
      ],
      "name": "MetadataUpdate",
      "type": "event"
    },
    {
      "anonymous": false,
      "inputs": [
        {
          "indexed": true,
          "internalType": "address",
          "name": "from",
          "type": "address"
        },
        {
          "indexed": true,
          "internalType": "address",
          "name": "to",
          "type": "address"
        },
        {
          "indexed": true,
          "internalType": "uint256",
          "name": "tokenId",
          "type": "uint256"
        }
      ],
      "name": "Transfer",
      "type": "event"
    },
    {
      "inputs": [
        {
          "internalType": "address",
          "name": "authorAddress",
          "type": "address"
        },
        {
          "internalType": "string",
          "name": "tokenURI",
          "type": "string"
        }
      ],
      "name": "addBook",
      "outputs": [],
      "stateMutability": "nonpayable",
      "type": "function"
    },
    {
      "inputs": [
        {
          "internalType": "address",
          "name": "to",
          "type": "address"
        },
        {
          "internalType": "uint256",
          "name": "tokenId",
          "type": "uint256"
        }
      ],
      "name": "approve",
      "outputs": [],
      "stateMutability": "nonpayable",
      "type": "function"
    },
    {
      "inputs": [
        {
          "internalType": "address",
          "name": "owner",
          "type": "address"
        }
      ],
      "name": "balanceOf",
      "outputs": [
        {
          "internalType": "uint256",
          "name": "",
          "type": "uint256"
        }
      ],
      "stateMutability": "view",
      "type": "function"
    },
    {
      "inputs": [],
      "name": "bookCount",
      "outputs": [
        {
          "internalType": "uint256",
          "name": "",
          "type": "uint256"
        }
      ],
      "stateMutability": "view",
      "type": "function"
    },
    {
      "inputs": [
        {
          "internalType": "uint256",
          "name": "",
          "type": "uint256"
        }
      ],
      "name": "books",
      "outputs": [
        {
          "internalType": "address",
          "name": "author",
          "type": "address"
        },
        {
          "internalType": "string",
          "name": "tokenURI",
          "type": "string"
        },
        {
          "internalType": "uint256",
          "name": "totalSupply",
          "type": "uint256"
        }
      ],
      "stateMutability": "view",
      "type": "function"
    },
    {
      "inputs": [
        {
          "internalType": "uint256",
          "name": "tokenId",
          "type": "uint256"
        }
      ],
      "name": "getApproved",
      "outputs": [
        {
          "internalType": "address",
          "name": "",
          "type": "address"
        }
      ],
      "stateMutability": "view",
      "type": "function"
    },
    {
      "inputs": [
        {
          "internalType": "uint256",
          "name": "bookId",
          "type": "uint256"
        }
      ],
      "name": "getBook",
      "outputs": [
        {
          "internalType": "address",
          "name": "author",
          "type": "address"
        },
        {
          "internalType": "string",
          "name": "tokenURI",
          "type": "string"
        },
        {
          "internalType": "uint256",
          "name": "totalSupply",
          "type": "uint256"
        }
      ],
      "stateMutability": "view",
      "type": "function"
    },
    {
      "inputs": [
        {
          "internalType": "address",
          "name": "owner",
          "type": "address"
        },
        {
          "internalType": "address",
          "name": "operator",
          "type": "address"
        }
      ],
      "name": "isApprovedForAll",
      "outputs": [
        {
          "internalType": "bool",
          "name": "",
          "type": "bool"
        }
      ],
      "stateMutability": "view",
      "type": "function"
    },
    {
      "inputs": [
        {
          "internalType": "uint256",
          "name": "bookId",
          "type": "uint256"
        },
        {
          "internalType": "address",
          "name": "recipient",
          "type": "address"
        },
        {
          "internalType": "uint256",
          "name": "amount",
          "type": "uint256"
        }
      ],
      "name": "mintBook",
      "outputs": [],
      "stateMutability": "nonpayable",
      "type": "function"
    },
    {
      "inputs": [],
      "name": "name",
      "outputs": [
        {
          "internalType": "string",
          "name": "",
          "type": "string"
        }
      ],
      "stateMutability": "view",
      "type": "function"
    },
    {
      "inputs": [
        {
          "internalType": "uint256",
          "name": "tokenId",
          "type": "uint256"
        }
      ],
      "name": "ownerOf",
      "outputs": [
        {
          "internalType": "address",
          "name": "",
          "type": "address"
        }
      ],
      "stateMutability": "view",
      "type": "function"
    },
    {
      "inputs": [],
      "name": "poxToken",
      "outputs": [
        {
          "internalType": "contract PFToken",
          "name": "",
          "type": "address"
        }
      ],
      "stateMutability": "view",
      "type": "function"
    },
    {
      "inputs": [
        {
          "internalType": "address",
          "name": "from",
          "type": "address"
        },
        {
          "internalType": "address",
          "name": "to",
          "type": "address"
        },
        {
          "internalType": "uint256",
          "name": "tokenId",
          "type": "uint256"
        }
      ],
      "name": "safeTransferFrom",
      "outputs": [],
      "stateMutability": "nonpayable",
      "type": "function"
    },
    {
      "inputs": [
        {
          "internalType": "address",
          "name": "from",
          "type": "address"
        },
        {
          "internalType": "address",
          "name": "to",
          "type": "address"
        },
        {
          "internalType": "uint256",
          "name": "tokenId",
          "type": "uint256"
        },
        {
          "internalType": "bytes",
          "name": "data",
          "type": "bytes"
        }
      ],
      "name": "safeTransferFrom",
      "outputs": [],
      "stateMutability": "nonpayable",
      "type": "function"
    },
    {
      "inputs": [
        {
          "internalType": "address",
          "name": "operator",
          "type": "address"
        },
        {
          "internalType": "bool",
          "name": "approved",
          "type": "bool"
        }
      ],
      "name": "setApprovalForAll",
      "outputs": [],
      "stateMutability": "nonpayable",
      "type": "function"
    },
    {
      "inputs": [
        {
          "internalType": "bytes4",
          "name": "interfaceId",
          "type": "bytes4"
        }
      ],
      "name": "supportsInterface",
      "outputs": [
        {
          "internalType": "bool",
          "name": "",
          "type": "bool"
        }
      ],
      "stateMutability": "view",
      "type": "function"
    },
    {
      "inputs": [],
      "name": "symbol",
      "outputs": [
        {
          "internalType": "string",
          "name": "",
          "type": "string"
        }
      ],
      "stateMutability": "view",
      "type": "function"
    },
    {
      "inputs": [
        {
          "internalType": "uint256",
          "name": "tokenId",
          "type": "uint256"
        }
      ],
      "name": "tokenURI",
      "outputs": [
        {
          "internalType": "string",
          "name": "",
          "type": "string"
        }
      ],
      "stateMutability": "view",
      "type": "function"
    },
    {
      "inputs": [],
      "name": "totalBooks",
      "outputs": [
        {
          "internalType": "uint256",
          "name": "",
          "type": "uint256"
        }
      ],
      "stateMutability": "view",
      "type": "function"
    },
    {
      "inputs": [
        {
          "internalType": "address",
          "name": "from",
          "type": "address"
        },
        {
          "internalType": "address",
          "name": "to",
          "type": "address"
        },
        {
          "internalType": "uint256",
          "name": "tokenId",
          "type": "uint256"
        }
      ],
      "name": "transferFrom",
      "outputs": [],
      "stateMutability": "nonpayable",
      "type": "function"
    }
  ],
  "bytecode": "0x60806040523480156200001157600080fd5b50604051620031a3380380620031a383398181016040528101906200003791906200017b565b6040518060400160405280600981526020017f50464c69627261727900000000000000000000000000000000000000000000008152506040518060400160405280600381526020017f50464c00000000000000000000000000000000000000000000000000000000008152508160009081620000b4919062000427565b508060019081620000c6919062000427565b50505080600760006101000a81548173ffffffffffffffffffffffffffffffffffffffff021916908373ffffffffffffffffffffffffffffffffffffffff160217905550506200050e565b600080fd5b600073ffffffffffffffffffffffffffffffffffffffff82169050919050565b6000620001438262000116565b9050919050565b620001558162000136565b81146200016157600080fd5b50565b60008151905062000175816200014a565b92915050565b60006020828403121562000194576200019362000111565b5b6000620001a48482850162000164565b91505092915050565b600081519050919050565b7f4e487b7100000000000000000000000000000000000000000000000000000000600052604160045260246000fd5b7f4e487b7100000000000000000000000000000000000000000000000000000000600052602260045260246000fd5b600060028204905060018216806200022f57607f821691505b602082108103620002455762000244620001e7565b5b50919050565b60008190508160005260206000209050919050565b60006020601f8301049050919050565b600082821b905092915050565b600060088302620002af7fffffffffffffffffffffffffffffffffffffffffffffffffffffffffffffffff8262000270565b620002bb868362000270565b95508019841693508086168417925050509392505050565b6000819050919050565b6000819050919050565b60006200030862000302620002fc84620002d3565b620002dd565b620002d3565b9050919050565b6000819050919050565b6200032483620002e7565b6200033c62000333826200030f565b8484546200027d565b825550505050565b600090565b6200035362000344565b6200036081848462000319565b505050565b5b8181101562000388576200037c60008262000349565b60018101905062000366565b5050565b601f821115620003d757620003a1816200024b565b620003ac8462000260565b81016020851015620003bc578190505b620003d4620003cb8562000260565b83018262000365565b50505b505050565b600082821c905092915050565b6000620003fc60001984600802620003dc565b1980831691505092915050565b6000620004178383620003e9565b9150826002028217905092915050565b6200043282620001ad565b67ffffffffffffffff8111156200044e576200044d620001b8565b5b6200045a825462000216565b620004678282856200038c565b600060209050601f8311600181146200049f57600084156200048a578287015190505b62000496858262000409565b86555062000506565b601f198416620004af866200024b565b60005b82811015620004d957848901518255600182019150602085019450602081019050620004b2565b86831015620004f95784890151620004f5601f891682620003e9565b8355505b6001600288020188555050505b505050505050565b612c85806200051e6000396000f3fe608060405234801561001057600080fd5b506004361061012c5760003560e01c80638606afca116100ad578063b905ad7811610071578063b905ad7814610341578063c87b56dd1461035f578063d89c10ae1461038f578063e0ff5b8b146103ad578063e985e9c5146103df5761012c565b80638606afca146102b35780638e0693bc146102cf57806395d89b41146102eb578063a22cb46514610309578063b88d4fde146103255761012c565b806342842e0e116100f457806342842e0e146101e75780636352211e1461020357806368744046146102335780636ec4f4bf1461026557806370a08231146102835761012c565b806301ffc9a71461013157806306fdde0314610161578063081812fc1461017f578063095ea7b3146101af57806323b872dd146101cb575b600080fd5b61014b60048036038101906101469190611e8b565b61040f565b6040516101589190611ed3565b60405180910390f35b610169610470565b6040516101769190611f7e565b60405180910390f35b61019960048036038101906101949190611fd6565b610502565b6040516101a69190612044565b60405180910390f35b6101c960048036038101906101c4919061208b565b61051e565b005b6101e560048036038101906101e091906120cb565b610534565b005b61020160048036038101906101fc91906120cb565b610636565b005b61021d60048036038101906102189190611fd6565b610656565b60405161022a9190612044565b60405180910390f35b61024d60048036038101906102489190611fd6565b610668565b60405161025c9392919061212d565b60405180910390f35b61026d61073a565b60405161027a919061216b565b60405180910390f35b61029d60048036038101906102989190612186565b610744565b6040516102aa919061216b565b60405180910390f35b6102cd60048036038101906102c891906122e8565b6107fe565b005b6102e960048036038101906102e49190612344565b6108cb565b005b6102f3610b56565b6040516103009190611f7e565b60405180910390f35b610323600480360381019061031e91906123c3565b610be8565b005b61033f600480360381019061033a91906124a4565b610bfe565b005b610349610c1b565b604051610356919061216b565b60405180910390f35b61037960048036038101906103749190611fd6565b610c21565b6040516103869190611f7e565b60405180910390f35b610397610d34565b6040516103a49190612586565b60405180910390f35b6103c760048036038101906103c29190611fd6565b610d5a565b6040516103d69392919061212d565b60405180910390f35b6103f960048036038101906103f491906125a1565b610ea3565b6040516104069190611ed3565b60405180910390f35b6000634906490660e01b7bffffffffffffffffffffffffffffffffffffffffffffffffffffffff1916827bffffffffffffffffffffffffffffffffffffffffffffffffffffffff19161480610469575061046882610f37565b5b9050919050565b60606000805461047f90612610565b80601f01602080910402602001604051908101604052809291908181526020018280546104ab90612610565b80156104f85780601f106104cd576101008083540402835291602001916104f8565b820191906000526020600020905b8154815290600101906020018083116104db57829003601f168201915b5050505050905090565b600061050d82611019565b50610517826110a1565b9050919050565b610530828261052b6110de565b6110e6565b5050565b600073ffffffffffffffffffffffffffffffffffffffff168273ffffffffffffffffffffffffffffffffffffffff16036105a65760006040517f64a0ae9200000000000000000000000000000000000000000000000000000000815260040161059d9190612044565b60405180910390fd5b60006105ba83836105b56110de565b6110f8565b90508373ffffffffffffffffffffffffffffffffffffffff168173ffffffffffffffffffffffffffffffffffffffff1614610630578382826040517f64283d7b00000000000000000000000000000000000000000000000000000000815260040161062793929190612641565b60405180910390fd5b50505050565b61065183838360405180602001604052806000815250610bfe565b505050565b600061066182611019565b9050919050565b60096020528060005260406000206000915090508060000160009054906101000a900473ffffffffffffffffffffffffffffffffffffffff16908060010180546106b190612610565b80601f01602080910402602001604051908101604052809291908181526020018280546106dd90612610565b801561072a5780601f106106ff5761010080835404028352916020019161072a565b820191906000526020600020905b81548152906001019060200180831161070d57829003601f168201915b5050505050908060020154905083565b6000600854905090565b60008073ffffffffffffffffffffffffffffffffffffffff168273ffffffffffffffffffffffffffffffffffffffff16036107b75760006040517f89c62b640000000000000000000000000000000000000000000000000000000081526004016107ae9190612044565b60405180910390fd5b600360008373ffffffffffffffffffffffffffffffffffffffff1673ffffffffffffffffffffffffffffffffffffffff168152602001908152602001600020549050919050565b60086000815480929190610811906126a7565b919050555060405180606001604052808373ffffffffffffffffffffffffffffffffffffffff168152602001828152602001600081525060096000600854815260200190815260200160002060008201518160000160006101000a81548173ffffffffffffffffffffffffffffffffffffffff021916908373ffffffffffffffffffffffffffffffffffffffff16021790555060208201518160010190816108b99190612891565b50604082015181600201559050505050565b60006009600085815260200190815260200160002060010180546108ee90612610565b905003610930576040517f08c379a0000000000000000000000000000000000000000000000000000000008152600401610927906129af565b60405180910390fd5b600760009054906101000a900473ffffffffffffffffffffffffffffffffffffffff1673ffffffffffffffffffffffffffffffffffffffff166323b872dd336009600087815260200190815260200160002060000160009054906101000a900473ffffffffffffffffffffffffffffffffffffffff16846040518463ffffffff1660e01b81526004016109c5939291906129cf565b6020604051808303816000875af11580156109e4573d6000803e3d6000fd5b505050506040513d601f19601f82011682018060405250810190610a089190612a1b565b610a47576040517f08c379a0000000000000000000000000000000000000000000000000000000008152600401610a3e90612a94565b60405180910390fd5b600960008481526020019081526020016000206002016000815480929190610a6e906126a7565b9190505550610a93826009600086815260200190815260200160002060020154611312565b610b516009600085815260200190815260200160002060020154600960008681526020019081526020016000206001018054610ace90612610565b80601f0160208091040260200160405190810160405280929190818152602001828054610afa90612610565b8015610b475780601f10610b1c57610100808354040283529160200191610b47565b820191906000526020600020905b815481529060010190602001808311610b2a57829003601f168201915b505050505061140b565b505050565b606060018054610b6590612610565b80601f0160208091040260200160405190810160405280929190818152602001828054610b9190612610565b8015610bde5780601f10610bb357610100808354040283529160200191610bde565b820191906000526020600020905b815481529060010190602001808311610bc157829003601f168201915b5050505050905090565b610bfa610bf36110de565b8383611467565b5050565b610c09848484610534565b610c15848484846115d6565b50505050565b60085481565b6060610c2c82611019565b506000600660008481526020019081526020016000208054610c4d90612610565b80601f0160208091040260200160405190810160405280929190818152602001828054610c7990612610565b8015610cc65780601f10610c9b57610100808354040283529160200191610cc6565b820191906000526020600020905b815481529060010190602001808311610ca957829003601f168201915b505050505090506000610cd761178d565b90506000815103610cec578192505050610d2f565b600082511115610d21578082604051602001610d09929190612af0565b60405160208183030381529060405292505050610d2f565b610d2a846117a4565b925050505b919050565b600760009054906101000a900473ffffffffffffffffffffffffffffffffffffffff1681565b60006060600080600960008681526020019081526020016000206001018054610d8290612610565b905003610dc4576040517f08c379a0000000000000000000000000000000000000000000000000000000008152600401610dbb906129af565b60405180910390fd5b60006009600086815260200190815260200160002090508060000160009054906101000a900473ffffffffffffffffffffffffffffffffffffffff16816001018260020154818054610e1590612610565b80601f0160208091040260200160405190810160405280929190818152602001828054610e4190612610565b8015610e8e5780601f10610e6357610100808354040283529160200191610e8e565b820191906000526020600020905b815481529060010190602001808311610e7157829003601f168201915b50505050509150935093509350509193909250565b6000600560008473ffffffffffffffffffffffffffffffffffffffff1673ffffffffffffffffffffffffffffffffffffffff16815260200190815260200160002060008373ffffffffffffffffffffffffffffffffffffffff1673ffffffffffffffffffffffffffffffffffffffff16815260200190815260200160002060009054906101000a900460ff16905092915050565b60007f80ac58cd000000000000000000000000000000000000000000000000000000007bffffffffffffffffffffffffffffffffffffffffffffffffffffffff1916827bffffffffffffffffffffffffffffffffffffffffffffffffffffffff1916148061100257507f5b5e139f000000000000000000000000000000000000000000000000000000007bffffffffffffffffffffffffffffffffffffffffffffffffffffffff1916827bffffffffffffffffffffffffffffffffffffffffffffffffffffffff1916145b8061101257506110118261180d565b5b9050919050565b60008061102583611877565b9050600073ffffffffffffffffffffffffffffffffffffffff168173ffffffffffffffffffffffffffffffffffffffff160361109857826040517f7e27328900000000000000000000000000000000000000000000000000000000815260040161108f919061216b565b60405180910390fd5b80915050919050565b60006004600083815260200190815260200160002060009054906101000a900473ffffffffffffffffffffffffffffffffffffffff169050919050565b600033905090565b6110f383838360016118b4565b505050565b60008061110484611877565b9050600073ffffffffffffffffffffffffffffffffffffffff168373ffffffffffffffffffffffffffffffffffffffff161461114657611145818486611a79565b5b600073ffffffffffffffffffffffffffffffffffffffff168173ffffffffffffffffffffffffffffffffffffffff16146111d7576111886000856000806118b4565b6001600360008373ffffffffffffffffffffffffffffffffffffffff1673ffffffffffffffffffffffffffffffffffffffff168152602001908152602001600020600082825403925050819055505b600073ffffffffffffffffffffffffffffffffffffffff168573ffffffffffffffffffffffffffffffffffffffff161461125a576001600360008773ffffffffffffffffffffffffffffffffffffffff1673ffffffffffffffffffffffffffffffffffffffff168152602001908152602001600020600082825401925050819055505b846002600086815260200190815260200160002060006101000a81548173ffffffffffffffffffffffffffffffffffffffff021916908373ffffffffffffffffffffffffffffffffffffffff160217905550838573ffffffffffffffffffffffffffffffffffffffff168273ffffffffffffffffffffffffffffffffffffffff167fddf252ad1be2c89b69c2b068fc378daa952ba7f163c4a11628f55a4df523b3ef60405160405180910390a4809150509392505050565b600073ffffffffffffffffffffffffffffffffffffffff168273ffffffffffffffffffffffffffffffffffffffff16036113845760006040517f64a0ae9200000000000000000000000000000000000000000000000000000000815260040161137b9190612044565b60405180910390fd5b6000611392838360006110f8565b9050600073ffffffffffffffffffffffffffffffffffffffff168173ffffffffffffffffffffffffffffffffffffffff16146114065760006040517f73c6ac6e0000000000000000000000000000000000000000000000000000000081526004016113fd9190612044565b60405180910390fd5b505050565b8060066000848152602001908152602001600020908161142b9190612891565b507ff8e1a15aba9398e019f0b49df1a4fde98ee17ae345cb5f6b5e2c27f5033e8ce78260405161145b919061216b565b60405180910390a15050565b600073ffffffffffffffffffffffffffffffffffffffff168273ffffffffffffffffffffffffffffffffffffffff16036114d857816040517f5b08ba180000000000000000000000000000000000000000000000000000000081526004016114cf9190612044565b60405180910390fd5b80600560008573ffffffffffffffffffffffffffffffffffffffff1673ffffffffffffffffffffffffffffffffffffffff16815260200190815260200160002060008473ffffffffffffffffffffffffffffffffffffffff1673ffffffffffffffffffffffffffffffffffffffff16815260200190815260200160002060006101000a81548160ff0219169083151502179055508173ffffffffffffffffffffffffffffffffffffffff168373ffffffffffffffffffffffffffffffffffffffff167f17307eab39ab6107e8899845ad3d59bd9653f200f220920489ca2b5937696c31836040516115c99190611ed3565b60405180910390a3505050565b60008373ffffffffffffffffffffffffffffffffffffffff163b1115611787578273ffffffffffffffffffffffffffffffffffffffff1663150b7a0261161a6110de565b8685856040518563ffffffff1660e01b815260040161163c9493929190612b69565b6020604051808303816000875af192505050801561167857506040513d601f19601f820116820180604052508101906116759190612bca565b60015b6116fc573d80600081146116a8576040519150601f19603f3d011682016040523d82523d6000602084013e6116ad565b606091505b5060008151036116f457836040517f64a0ae920000000000000000000000000000000000000000000000000000000081526004016116eb9190612044565b60405180910390fd5b805181602001fd5b63150b7a0260e01b7bffffffffffffffffffffffffffffffffffffffffffffffffffffffff1916817bffffffffffffffffffffffffffffffffffffffffffffffffffffffff19161461178557836040517f64a0ae9200000000000000000000000000000000000000000000000000000000815260040161177c9190612044565b60405180910390fd5b505b50505050565b606060405180602001604052806000815250905090565b60606117af82611019565b5060006117ba61178d565b905060008151116117da5760405180602001604052806000815250611805565b806117e484611b3d565b6040516020016117f5929190612af0565b6040516020818303038152906040525b915050919050565b60007f01ffc9a7000000000000000000000000000000000000000000000000000000007bffffffffffffffffffffffffffffffffffffffffffffffffffffffff1916827bffffffffffffffffffffffffffffffffffffffffffffffffffffffff1916149050919050565b60006002600083815260200190815260200160002060009054906101000a900473ffffffffffffffffffffffffffffffffffffffff169050919050565b80806118ed5750600073ffffffffffffffffffffffffffffffffffffffff168273ffffffffffffffffffffffffffffffffffffffff1614155b15611a215760006118fd84611019565b9050600073ffffffffffffffffffffffffffffffffffffffff168373ffffffffffffffffffffffffffffffffffffffff161415801561196857508273ffffffffffffffffffffffffffffffffffffffff168173ffffffffffffffffffffffffffffffffffffffff1614155b801561197b57506119798184610ea3565b155b156119bd57826040517fa9fbf51f0000000000000000000000000000000000000000000000000000000081526004016119b49190612044565b60405180910390fd5b8115611a1f57838573ffffffffffffffffffffffffffffffffffffffff168273ffffffffffffffffffffffffffffffffffffffff167f8c5be1e5ebec7d5bd14f71427d1e84f3dd0314c0f7b2291e5b200ac8c7c3b92560405160405180910390a45b505b836004600085815260200190815260200160002060006101000a81548173ffffffffffffffffffffffffffffffffffffffff021916908373ffffffffffffffffffffffffffffffffffffffff16021790555050505050565b611a84838383611c0b565b611b3857600073ffffffffffffffffffffffffffffffffffffffff168373ffffffffffffffffffffffffffffffffffffffff1603611af957806040517f7e273289000000000000000000000000000000000000000000000000000000008152600401611af0919061216b565b60405180910390fd5b81816040517f177e802f000000000000000000000000000000000000000000000000000000008152600401611b2f929190612bf7565b60405180910390fd5b505050565b606060006001611b4c84611ccc565b01905060008167ffffffffffffffff811115611b6b57611b6a6121bd565b5b6040519080825280601f01601f191660200182016040528015611b9d5781602001600182028036833780820191505090505b509050600082602001820190505b600115611c00578080600190039150507f3031323334353637383961626364656600000000000000000000000000000000600a86061a8153600a8581611bf457611bf3612c20565b5b04945060008503611bab575b819350505050919050565b60008073ffffffffffffffffffffffffffffffffffffffff168373ffffffffffffffffffffffffffffffffffffffff1614158015611cc357508273ffffffffffffffffffffffffffffffffffffffff168473ffffffffffffffffffffffffffffffffffffffff161480611c845750611c838484610ea3565b5b80611cc257508273ffffffffffffffffffffffffffffffffffffffff16611caa836110a1565b73ffffffffffffffffffffffffffffffffffffffff16145b5b90509392505050565b600080600090507a184f03e93ff9f4daa797ed6e38ed64bf6a1f0100000000000000008310611d2a577a184f03e93ff9f4daa797ed6e38ed64bf6a1f0100000000000000008381611d2057611d1f612c20565b5b0492506040810190505b6d04ee2d6d415b85acef81000000008310611d67576d04ee2d6d415b85acef81000000008381611d5d57611d5c612c20565b5b0492506020810190505b662386f26fc100008310611d9657662386f26fc100008381611d8c57611d8b612c20565b5b0492506010810190505b6305f5e1008310611dbf576305f5e1008381611db557611db4612c20565b5b0492506008810190505b6127108310611de4576127108381611dda57611dd9612c20565b5b0492506004810190505b60648310611e075760648381611dfd57611dfc612c20565b5b0492506002810190505b600a8310611e16576001810190505b80915050919050565b6000604051905090565b600080fd5b600080fd5b60007fffffffff0000000000000000000000000000000000000000000000000000000082169050919050565b611e6881611e33565b8114611e7357600080fd5b50565b600081359050611e8581611e5f565b92915050565b600060208284031215611ea157611ea0611e29565b5b6000611eaf84828501611e76565b91505092915050565b60008115159050919050565b611ecd81611eb8565b82525050565b6000602082019050611ee86000830184611ec4565b92915050565b600081519050919050565b600082825260208201905092915050565b60005b83811015611f28578082015181840152602081019050611f0d565b60008484015250505050565b6000601f19601f8301169050919050565b6000611f5082611eee565b611f5a8185611ef9565b9350611f6a818560208601611f0a565b611f7381611f34565b840191505092915050565b60006020820190508181036000830152611f988184611f45565b905092915050565b6000819050919050565b611fb381611fa0565b8114611fbe57600080fd5b50565b600081359050611fd081611faa565b92915050565b600060208284031215611fec57611feb611e29565b5b6000611ffa84828501611fc1565b91505092915050565b600073ffffffffffffffffffffffffffffffffffffffff82169050919050565b600061202e82612003565b9050919050565b61203e81612023565b82525050565b60006020820190506120596000830184612035565b92915050565b61206881612023565b811461207357600080fd5b50565b6000813590506120858161205f565b92915050565b600080604083850312156120a2576120a1611e29565b5b60006120b085828601612076565b92505060206120c185828601611fc1565b9150509250929050565b6000806000606084860312156120e4576120e3611e29565b5b60006120f286828701612076565b935050602061210386828701612076565b925050604061211486828701611fc1565b9150509250925092565b61212781611fa0565b82525050565b60006060820190506121426000830186612035565b81810360208301526121548185611f45565b9050612163604083018461211e565b949350505050565b6000602082019050612180600083018461211e565b92915050565b60006020828403121561219c5761219b611e29565b5b60006121aa84828501612076565b91505092915050565b600080fd5b600080fd5b7f4e487b7100000000000000000000000000000000000000000000000000000000600052604160045260246000fd5b6121f582611f34565b810181811067ffffffffffffffff82111715612214576122136121bd565b5b80604052505050565b6000612227611e1f565b905061223382826121ec565b919050565b600067ffffffffffffffff821115612253576122526121bd565b5b61225c82611f34565b9050602081019050919050565b82818337600083830152505050565b600061228b61228684612238565b61221d565b9050828152602081018484840111156122a7576122a66121b8565b5b6122b2848285612269565b509392505050565b600082601f8301126122cf576122ce6121b3565b5b81356122df848260208601612278565b91505092915050565b600080604083850312156122ff576122fe611e29565b5b600061230d85828601612076565b925050602083013567ffffffffffffffff81111561232e5761232d611e2e565b5b61233a858286016122ba565b9150509250929050565b60008060006060848603121561235d5761235c611e29565b5b600061236b86828701611fc1565b935050602061237c86828701612076565b925050604061238d86828701611fc1565b9150509250925092565b6123a081611eb8565b81146123ab57600080fd5b50565b6000813590506123bd81612397565b92915050565b600080604083850312156123da576123d9611e29565b5b60006123e885828601612076565b92505060206123f9858286016123ae565b9150509250929050565b600067ffffffffffffffff82111561241e5761241d6121bd565b5b61242782611f34565b9050602081019050919050565b600061244761244284612403565b61221d565b905082815260208101848484011115612463576124626121b8565b5b61246e848285612269565b509392505050565b600082601f83011261248b5761248a6121b3565b5b813561249b848260208601612434565b91505092915050565b600080600080608085870312156124be576124bd611e29565b5b60006124cc87828801612076565b94505060206124dd87828801612076565b93505060406124ee87828801611fc1565b925050606085013567ffffffffffffffff81111561250f5761250e611e2e565b5b61251b87828801612476565b91505092959194509250565b6000819050919050565b600061254c61254761254284612003565b612527565b612003565b9050919050565b600061255e82612531565b9050919050565b600061257082612553565b9050919050565b61258081612565565b82525050565b600060208201905061259b6000830184612577565b92915050565b600080604083850312156125b8576125b7611e29565b5b60006125c685828601612076565b92505060206125d785828601612076565b9150509250929050565b7f4e487b7100000000000000000000000000000000000000000000000000000000600052602260045260246000fd5b6000600282049050600182168061262857607f821691505b60208210810361263b5761263a6125e1565b5b50919050565b60006060820190506126566000830186612035565b612663602083018561211e565b6126706040830184612035565b949350505050565b7f4e487b7100000000000000000000000000000000000000000000000000000000600052601160045260246000fd5b60006126b282611fa0565b91507fffffffffffffffffffffffffffffffffffffffffffffffffffffffffffffffff82036126e4576126e3612678565b5b600182019050919050565b60008190508160005260206000209050919050565b60006020601f8301049050919050565b600082821b905092915050565b6000600883026127517fffffffffffffffffffffffffffffffffffffffffffffffffffffffffffffffff82612714565b61275b8683612714565b95508019841693508086168417925050509392505050565b600061278e61278961278484611fa0565b612527565b611fa0565b9050919050565b6000819050919050565b6127a883612773565b6127bc6127b482612795565b848454612721565b825550505050565b600090565b6127d16127c4565b6127dc81848461279f565b505050565b5b81811015612800576127f56000826127c9565b6001810190506127e2565b5050565b601f82111561284557612816816126ef565b61281f84612704565b8101602085101561282e578190505b61284261283a85612704565b8301826127e1565b50505b505050565b600082821c905092915050565b60006128686000198460080261284a565b1980831691505092915050565b60006128818383612857565b9150826002028217905092915050565b61289a82611eee565b67ffffffffffffffff8111156128b3576128b26121bd565b5b6128bd8254612610565b6128c8828285612804565b600060209050601f8311600181146128fb57600084156128e9578287015190505b6128f38582612875565b86555061295b565b601f198416612909866126ef565b60005b828110156129315784890151825560018201915060208501945060208101905061290c565b8683101561294e578489015161294a601f891682612857565b8355505b6001600288020188555050505b505050505050565b7f426f6f6b20646f6573206e6f7420657869737400000000000000000000000000600082015250565b6000612999601383611ef9565b91506129a482612963565b602082019050919050565b600060208201905081810360008301526129c88161298c565b9050919050565b60006060820190506129e46000830186612035565b6129f16020830185612035565b6129fe604083018461211e565b949350505050565b600081519050612a1581612397565b92915050565b600060208284031215612a3157612a30611e29565b5b6000612a3f84828501612a06565b91505092915050565b7f546f6b656e207472616e73666572206661696c65640000000000000000000000600082015250565b6000612a7e601583611ef9565b9150612a8982612a48565b602082019050919050565b60006020820190508181036000830152612aad81612a71565b9050919050565b600081905092915050565b6000612aca82611eee565b612ad48185612ab4565b9350612ae4818560208601611f0a565b80840191505092915050565b6000612afc8285612abf565b9150612b088284612abf565b91508190509392505050565b600081519050919050565b600082825260208201905092915050565b6000612b3b82612b14565b612b458185612b1f565b9350612b55818560208601611f0a565b612b5e81611f34565b840191505092915050565b6000608082019050612b7e6000830187612035565b612b8b6020830186612035565b612b98604083018561211e565b8181036060830152612baa8184612b30565b905095945050505050565b600081519050612bc481611e5f565b92915050565b600060208284031215612be057612bdf611e29565b5b6000612bee84828501612bb5565b91505092915050565b6000604082019050612c0c6000830185612035565b612c19602083018461211e565b9392505050565b7f4e487b7100000000000000000000000000000000000000000000000000000000600052601260045260246000fdfea26469706673582212204136033e7c377a042b1e1be2ea15cb60bb2c5a3655022eae6d2931c9dac6148d64736f6c63430008180033",
  "linkReferences": {},
  "deployedLinkReferences": {}
}