{
  "_format": "hh-sol-artifact-1",
  "contractName": "PFLibrary",
  "sourceName": "contracts/PFLibrary.sol",
  "abi": [
    {
      "inputs": [
        {
          "internalType": "address",
          "name": "_poxAddress",
          "type": "address"
        }
      ],
      "stateMutability": "nonpayable",
      "type": "constructor"
    },
    {
      "inputs": [
        {
          "internalType": "address",
          "name": "sender",
          "type": "address"
        },
        {
          "internalType": "uint256",
          "name": "tokenId",
          "type": "uint256"
        },
        {
          "internalType": "address",
          "name": "owner",
          "type": "address"
        }
      ],
      "name": "ERC721IncorrectOwner",
      "type": "error"
    },
    {
      "inputs": [
        {
          "internalType": "address",
          "name": "operator",
          "type": "address"
        },
        {
          "internalType": "uint256",
          "name": "tokenId",
          "type": "uint256"
        }
      ],
      "name": "ERC721InsufficientApproval",
      "type": "error"
    },
    {
      "inputs": [
        {
          "internalType": "address",
          "name": "approver",
          "type": "address"
        }
      ],
      "name": "ERC721InvalidApprover",
      "type": "error"
    },
    {
      "inputs": [
        {
          "internalType": "address",
          "name": "operator",
          "type": "address"
        }
      ],
      "name": "ERC721InvalidOperator",
      "type": "error"
    },
    {
      "inputs": [
        {
          "internalType": "address",
          "name": "owner",
          "type": "address"
        }
      ],
      "name": "ERC721InvalidOwner",
      "type": "error"
    },
    {
      "inputs": [
        {
          "internalType": "address",
          "name": "receiver",
          "type": "address"
        }
      ],
      "name": "ERC721InvalidReceiver",
      "type": "error"
    },
    {
      "inputs": [
        {
          "internalType": "address",
          "name": "sender",
          "type": "address"
        }
      ],
      "name": "ERC721InvalidSender",
      "type": "error"
    },
    {
      "inputs": [
        {
          "internalType": "uint256",
          "name": "tokenId",
          "type": "uint256"
        }
      ],
      "name": "ERC721NonexistentToken",
      "type": "error"
    },
    {
      "anonymous": false,
      "inputs": [
        {
          "indexed": true,
          "internalType": "address",
          "name": "owner",
          "type": "address"
        },
        {
          "indexed": true,
          "internalType": "address",
          "name": "approved",
          "type": "address"
        },
        {
          "indexed": true,
          "internalType": "uint256",
          "name": "tokenId",
          "type": "uint256"
        }
      ],
      "name": "Approval",
      "type": "event"
    },
    {
      "anonymous": false,
      "inputs": [
        {
          "indexed": true,
          "internalType": "address",
          "name": "owner",
          "type": "address"
        },
        {
          "indexed": true,
          "internalType": "address",
          "name": "operator",
          "type": "address"
        },
        {
          "indexed": false,
          "internalType": "bool",
          "name": "approved",
          "type": "bool"
        }
      ],
      "name": "ApprovalForAll",
      "type": "event"
    },
    {
      "anonymous": false,
      "inputs": [
        {
          "indexed": false,
          "internalType": "uint256",
          "name": "_fromTokenId",
          "type": "uint256"
        },
        {
          "indexed": false,
          "internalType": "uint256",
          "name": "_toTokenId",
          "type": "uint256"
        }
      ],
      "name": "BatchMetadataUpdate",
      "type": "event"
    },
    {
      "anonymous": false,
      "inputs": [
        {
          "indexed": false,
          "internalType": "uint256",
          "name": "_tokenId",
          "type": "uint256"
        }
      ],
      "name": "MetadataUpdate",
      "type": "event"
    },
    {
      "anonymous": false,
      "inputs": [
        {
          "indexed": true,
          "internalType": "address",
          "name": "from",
          "type": "address"
        },
        {
          "indexed": true,
          "internalType": "address",
          "name": "to",
          "type": "address"
        },
        {
          "indexed": true,
          "internalType": "uint256",
          "name": "tokenId",
          "type": "uint256"
        }
      ],
      "name": "Transfer",
      "type": "event"
    },
    {
      "inputs": [
        {
          "internalType": "address",
          "name": "authorAddress",
          "type": "address"
        },
        {
          "internalType": "string",
          "name": "tokenURI",
          "type": "string"
        },
        {
          "internalType": "uint256",
          "name": "poxPrice",
          "type": "uint256"
        }
      ],
      "name": "addBook",
      "outputs": [],
      "stateMutability": "nonpayable",
      "type": "function"
    },
    {
      "inputs": [
        {
          "internalType": "address",
          "name": "to",
          "type": "address"
        },
        {
          "internalType": "uint256",
          "name": "tokenId",
          "type": "uint256"
        }
      ],
      "name": "approve",
      "outputs": [],
      "stateMutability": "nonpayable",
      "type": "function"
    },
    {
      "inputs": [
        {
          "internalType": "address",
          "name": "owner",
          "type": "address"
        }
      ],
      "name": "balanceOf",
      "outputs": [
        {
          "internalType": "uint256",
          "name": "",
          "type": "uint256"
        }
      ],
      "stateMutability": "view",
      "type": "function"
    },
    {
      "inputs": [],
      "name": "bookCount",
      "outputs": [
        {
          "internalType": "uint256",
          "name": "",
          "type": "uint256"
        }
      ],
      "stateMutability": "view",
      "type": "function"
    },
    {
      "inputs": [
        {
          "internalType": "uint256",
          "name": "",
          "type": "uint256"
        }
      ],
      "name": "books",
      "outputs": [
        {
          "internalType": "address",
          "name": "author",
          "type": "address"
        },
        {
          "internalType": "string",
          "name": "tokenURI",
          "type": "string"
        },
        {
          "internalType": "uint256",
          "name": "price",
          "type": "uint256"
        },
        {
          "internalType": "uint256",
          "name": "totalSupply",
          "type": "uint256"
        }
      ],
      "stateMutability": "view",
      "type": "function"
    },
    {
      "inputs": [
        {
          "internalType": "uint256",
          "name": "tokenId",
          "type": "uint256"
        }
      ],
      "name": "getApproved",
      "outputs": [
        {
          "internalType": "address",
          "name": "",
          "type": "address"
        }
      ],
      "stateMutability": "view",
      "type": "function"
    },
    {
      "inputs": [
        {
          "internalType": "uint256",
          "name": "bookId",
          "type": "uint256"
        }
      ],
      "name": "getBook",
      "outputs": [
        {
          "internalType": "address",
          "name": "author",
          "type": "address"
        },
        {
          "internalType": "string",
          "name": "tokenURI",
          "type": "string"
        },
        {
          "internalType": "uint256",
          "name": "poxPrice",
          "type": "uint256"
        },
        {
          "internalType": "uint256",
          "name": "totalSupply",
          "type": "uint256"
        }
      ],
      "stateMutability": "view",
      "type": "function"
    },
    {
      "inputs": [
        {
          "internalType": "address",
          "name": "owner",
          "type": "address"
        }
      ],
      "name": "getOwnedBooks",
      "outputs": [
        {
          "internalType": "uint256[]",
          "name": "",
          "type": "uint256[]"
        }
      ],
      "stateMutability": "view",
      "type": "function"
    },
    {
      "inputs": [
        {
          "internalType": "address",
          "name": "owner",
          "type": "address"
        },
        {
          "internalType": "address",
          "name": "operator",
          "type": "address"
        }
      ],
      "name": "isApprovedForAll",
      "outputs": [
        {
          "internalType": "bool",
          "name": "",
          "type": "bool"
        }
      ],
      "stateMutability": "view",
      "type": "function"
    },
    {
      "inputs": [
        {
          "internalType": "uint256",
          "name": "bookId",
          "type": "uint256"
        },
        {
          "internalType": "address",
          "name": "recipient",
          "type": "address"
        }
      ],
      "name": "mintBook",
      "outputs": [],
      "stateMutability": "nonpayable",
      "type": "function"
    },
    {
      "inputs": [],
      "name": "name",
      "outputs": [
        {
          "internalType": "string",
          "name": "",
          "type": "string"
        }
      ],
      "stateMutability": "view",
      "type": "function"
    },
    {
      "inputs": [
        {
          "internalType": "address",
          "name": "",
          "type": "address"
        },
        {
          "internalType": "uint256",
          "name": "",
          "type": "uint256"
        }
      ],
      "name": "ownedBooks",
      "outputs": [
        {
          "internalType": "uint256",
          "name": "",
          "type": "uint256"
        }
      ],
      "stateMutability": "view",
      "type": "function"
    },
    {
      "inputs": [
        {
          "internalType": "uint256",
          "name": "tokenId",
          "type": "uint256"
        }
      ],
      "name": "ownerOf",
      "outputs": [
        {
          "internalType": "address",
          "name": "",
          "type": "address"
        }
      ],
      "stateMutability": "view",
      "type": "function"
    },
    {
      "inputs": [],
      "name": "poxToken",
      "outputs": [
        {
          "internalType": "contract PFToken",
          "name": "",
          "type": "address"
        }
      ],
      "stateMutability": "view",
      "type": "function"
    },
    {
      "inputs": [
        {
          "internalType": "address",
          "name": "from",
          "type": "address"
        },
        {
          "internalType": "address",
          "name": "to",
          "type": "address"
        },
        {
          "internalType": "uint256",
          "name": "tokenId",
          "type": "uint256"
        }
      ],
      "name": "safeTransferFrom",
      "outputs": [],
      "stateMutability": "nonpayable",
      "type": "function"
    },
    {
      "inputs": [
        {
          "internalType": "address",
          "name": "from",
          "type": "address"
        },
        {
          "internalType": "address",
          "name": "to",
          "type": "address"
        },
        {
          "internalType": "uint256",
          "name": "tokenId",
          "type": "uint256"
        },
        {
          "internalType": "bytes",
          "name": "data",
          "type": "bytes"
        }
      ],
      "name": "safeTransferFrom",
      "outputs": [],
      "stateMutability": "nonpayable",
      "type": "function"
    },
    {
      "inputs": [
        {
          "internalType": "address",
          "name": "operator",
          "type": "address"
        },
        {
          "internalType": "bool",
          "name": "approved",
          "type": "bool"
        }
      ],
      "name": "setApprovalForAll",
      "outputs": [],
      "stateMutability": "nonpayable",
      "type": "function"
    },
    {
      "inputs": [
        {
          "internalType": "bytes4",
          "name": "interfaceId",
          "type": "bytes4"
        }
      ],
      "name": "supportsInterface",
      "outputs": [
        {
          "internalType": "bool",
          "name": "",
          "type": "bool"
        }
      ],
      "stateMutability": "view",
      "type": "function"
    },
    {
      "inputs": [],
      "name": "symbol",
      "outputs": [
        {
          "internalType": "string",
          "name": "",
          "type": "string"
        }
      ],
      "stateMutability": "view",
      "type": "function"
    },
    {
      "inputs": [
        {
          "internalType": "uint256",
          "name": "tokenId",
          "type": "uint256"
        }
      ],
      "name": "tokenURI",
      "outputs": [
        {
          "internalType": "string",
          "name": "",
          "type": "string"
        }
      ],
      "stateMutability": "view",
      "type": "function"
    },
    {
      "inputs": [],
      "name": "totalBooks",
      "outputs": [
        {
          "internalType": "uint256",
          "name": "",
          "type": "uint256"
        }
      ],
      "stateMutability": "view",
      "type": "function"
    },
    {
      "inputs": [],
      "name": "totalBooksMinted",
      "outputs": [
        {
          "internalType": "uint256",
          "name": "",
          "type": "uint256"
        }
      ],
      "stateMutability": "view",
      "type": "function"
    },
    {
      "inputs": [
        {
          "internalType": "address",
          "name": "from",
          "type": "address"
        },
        {
          "internalType": "address",
          "name": "to",
          "type": "address"
        },
        {
          "internalType": "uint256",
          "name": "tokenId",
          "type": "uint256"
        }
      ],
      "name": "transferFrom",
      "outputs": [],
      "stateMutability": "nonpayable",
      "type": "function"
    }
  ],
  "bytecode": "0x60806040523480156200001157600080fd5b506040516200348d3803806200348d83398181016040528101906200003791906200017b565b6040518060400160405280600981526020017f50464c69627261727900000000000000000000000000000000000000000000008152506040518060400160405280600381526020017f50464c00000000000000000000000000000000000000000000000000000000008152508160009081620000b4919062000427565b508060019081620000c6919062000427565b50505080600760006101000a81548173ffffffffffffffffffffffffffffffffffffffff021916908373ffffffffffffffffffffffffffffffffffffffff160217905550506200050e565b600080fd5b600073ffffffffffffffffffffffffffffffffffffffff82169050919050565b6000620001438262000116565b9050919050565b620001558162000136565b81146200016157600080fd5b50565b60008151905062000175816200014a565b92915050565b60006020828403121562000194576200019362000111565b5b6000620001a48482850162000164565b91505092915050565b600081519050919050565b7f4e487b7100000000000000000000000000000000000000000000000000000000600052604160045260246000fd5b7f4e487b7100000000000000000000000000000000000000000000000000000000600052602260045260246000fd5b600060028204905060018216806200022f57607f821691505b602082108103620002455762000244620001e7565b5b50919050565b60008190508160005260206000209050919050565b60006020601f8301049050919050565b600082821b905092915050565b600060088302620002af7fffffffffffffffffffffffffffffffffffffffffffffffffffffffffffffffff8262000270565b620002bb868362000270565b95508019841693508086168417925050509392505050565b6000819050919050565b6000819050919050565b60006200030862000302620002fc84620002d3565b620002dd565b620002d3565b9050919050565b6000819050919050565b6200032483620002e7565b6200033c62000333826200030f565b8484546200027d565b825550505050565b600090565b6200035362000344565b6200036081848462000319565b505050565b5b8181101562000388576200037c60008262000349565b60018101905062000366565b5050565b601f821115620003d757620003a1816200024b565b620003ac8462000260565b81016020851015620003bc578190505b620003d4620003cb8562000260565b83018262000365565b50505b505050565b600082821c905092915050565b6000620003fc60001984600802620003dc565b1980831691505092915050565b6000620004178383620003e9565b9150826002028217905092915050565b6200043282620001ad565b67ffffffffffffffff8111156200044e576200044d620001b8565b5b6200045a825462000216565b620004678282856200038c565b600060209050601f8311600181146200049f57600084156200048a578287015190505b62000496858262000409565b86555062000506565b601f198416620004af866200024b565b60005b82811015620004d957848901518255600182019150602085019450602081019050620004b2565b86831015620004f95784890151620004f5601f891682620003e9565b8355505b6001600288020188555050505b505050505050565b612f6f806200051e6000396000f3fe608060405234801561001057600080fd5b506004361061014d5760003560e01c806368744046116100c3578063b905ad781161007c578063b905ad78146103b1578063c87b56dd146103cf578063cc1c3ccf146103ff578063d89c10ae1461042f578063e0ff5b8b1461044d578063e985e9c5146104805761014d565b806368744046146102da5780636ec4f4bf1461030d57806370a082311461032b57806395d89b411461035b578063a22cb46514610379578063b88d4fde146103955761014d565b806323b872dd1161011557806323b872dd1461020a5780633e9975031461022657806342842e0e14610256578063537595d0146102725780635d62b8af1461028e5780636352211e146102aa5761014d565b806301ffc9a71461015257806306fdde0314610182578063081812fc146101a0578063095ea7b3146101d0578063196dfba0146101ec575b600080fd5b61016c60048036038101906101679190612087565b6104b0565b60405161017991906120cf565b60405180910390f35b61018a610511565b604051610197919061217a565b60405180910390f35b6101ba60048036038101906101b591906121d2565b6105a3565b6040516101c79190612240565b60405180910390f35b6101ea60048036038101906101e59190612287565b6105bf565b005b6101f46105d5565b60405161020191906122d6565b60405180910390f35b610224600480360381019061021f91906122f1565b6105db565b005b610240600480360381019061023b9190612287565b6106dd565b60405161024d91906122d6565b60405180910390f35b610270600480360381019061026b91906122f1565b61070e565b005b61028c60048036038101906102879190612479565b61072e565b005b6102a860048036038101906102a391906124e8565b61080c565b005b6102c460048036038101906102bf91906121d2565b610b04565b6040516102d19190612240565b60405180910390f35b6102f460048036038101906102ef91906121d2565b610b16565b6040516103049493929190612528565b60405180910390f35b610315610bee565b60405161032291906122d6565b60405180910390f35b61034560048036038101906103409190612574565b610bf8565b60405161035291906122d6565b60405180910390f35b610363610cb2565b604051610370919061217a565b60405180910390f35b610393600480360381019061038e91906125cd565b610d44565b005b6103af60048036038101906103aa91906126ae565b610d5a565b005b6103b9610d77565b6040516103c691906122d6565b60405180910390f35b6103e960048036038101906103e491906121d2565b610d7d565b6040516103f6919061217a565b60405180910390f35b61041960048036038101906104149190612574565b610e90565b60405161042691906127ef565b60405180910390f35b610437610f27565b6040516104449190612870565b60405180910390f35b610467600480360381019061046291906121d2565b610f4d565b6040516104779493929190612528565b60405180910390f35b61049a6004803603810190610495919061288b565b61109f565b6040516104a791906120cf565b60405180910390f35b6000634906490660e01b7bffffffffffffffffffffffffffffffffffffffffffffffffffffffff1916827bffffffffffffffffffffffffffffffffffffffffffffffffffffffff1916148061050a575061050982611133565b5b9050919050565b606060008054610520906128fa565b80601f016020809104026020016040519081016040528092919081815260200182805461054c906128fa565b80156105995780601f1061056e57610100808354040283529160200191610599565b820191906000526020600020905b81548152906001019060200180831161057c57829003601f168201915b5050505050905090565b60006105ae82611215565b506105b88261129d565b9050919050565b6105d182826105cc6112da565b6112e2565b5050565b60095481565b600073ffffffffffffffffffffffffffffffffffffffff168273ffffffffffffffffffffffffffffffffffffffff160361064d5760006040517f64a0ae920000000000000000000000000000000000000000000000000000000081526004016106449190612240565b60405180910390fd5b6000610661838361065c6112da565b6112f4565b90508373ffffffffffffffffffffffffffffffffffffffff168173ffffffffffffffffffffffffffffffffffffffff16146106d7578382826040517f64283d7b0000000000000000000000000000000000000000000000000000000081526004016106ce9392919061292b565b60405180910390fd5b50505050565b600b60205281600052604060002081815481106106f957600080fd5b90600052602060002001600091509150505481565b61072983838360405180602001604052806000815250610d5a565b505050565b6008600081548092919061074190612991565b919050555060405180608001604052808473ffffffffffffffffffffffffffffffffffffffff1681526020018381526020018281526020016000815250600a6000600854815260200190815260200160002060008201518160000160006101000a81548173ffffffffffffffffffffffffffffffffffffffff021916908373ffffffffffffffffffffffffffffffffffffffff16021790555060208201518160010190816107ef9190612b7b565b506040820151816002015560608201518160030155905050505050565b6000600a6000848152602001908152602001600020600101805461082f906128fa565b905003610871576040517f08c379a000000000000000000000000000000000000000000000000000000000815260040161086890612c99565b60405180910390fd5b600760009054906101000a900473ffffffffffffffffffffffffffffffffffffffff1673ffffffffffffffffffffffffffffffffffffffff166323b872dd33600a600086815260200190815260200160002060000160009054906101000a900473ffffffffffffffffffffffffffffffffffffffff16600a6000878152602001908152602001600020600201546040518463ffffffff1660e01b815260040161091c93929190612cb9565b6020604051808303816000875af115801561093b573d6000803e3d6000fd5b505050506040513d601f19601f8201168201806040525081019061095f9190612d05565b61099e576040517f08c379a000000000000000000000000000000000000000000000000000000000815260040161099590612d7e565b60405180910390fd5b600a600083815260200190815260200160002060030160008154809291906109c590612991565b9190505550600960008154809291906109dd90612991565b91905055506109ee8160095461150e565b610a98600954600a60008581526020019081526020016000206001018054610a15906128fa565b80601f0160208091040260200160405190810160405280929190818152602001828054610a41906128fa565b8015610a8e5780601f10610a6357610100808354040283529160200191610a8e565b820191906000526020600020905b815481529060010190602001808311610a7157829003601f168201915b5050505050611607565b600b60008273ffffffffffffffffffffffffffffffffffffffff1673ffffffffffffffffffffffffffffffffffffffff16815260200190815260200160002060095490806001815401808255809150506001900390600052602060002001600090919091909150555050565b6000610b0f82611215565b9050919050565b600a6020528060005260406000206000915090508060000160009054906101000a900473ffffffffffffffffffffffffffffffffffffffff1690806001018054610b5f906128fa565b80601f0160208091040260200160405190810160405280929190818152602001828054610b8b906128fa565b8015610bd85780601f10610bad57610100808354040283529160200191610bd8565b820191906000526020600020905b815481529060010190602001808311610bbb57829003601f168201915b5050505050908060020154908060030154905084565b6000600854905090565b60008073ffffffffffffffffffffffffffffffffffffffff168273ffffffffffffffffffffffffffffffffffffffff1603610c6b5760006040517f89c62b64000000000000000000000000000000000000000000000000000000008152600401610c629190612240565b60405180910390fd5b600360008373ffffffffffffffffffffffffffffffffffffffff1673ffffffffffffffffffffffffffffffffffffffff168152602001908152602001600020549050919050565b606060018054610cc1906128fa565b80601f0160208091040260200160405190810160405280929190818152602001828054610ced906128fa565b8015610d3a5780601f10610d0f57610100808354040283529160200191610d3a565b820191906000526020600020905b815481529060010190602001808311610d1d57829003601f168201915b5050505050905090565b610d56610d4f6112da565b8383611663565b5050565b610d658484846105db565b610d71848484846117d2565b50505050565b60085481565b6060610d8882611215565b506000600660008481526020019081526020016000208054610da9906128fa565b80601f0160208091040260200160405190810160405280929190818152602001828054610dd5906128fa565b8015610e225780601f10610df757610100808354040283529160200191610e22565b820191906000526020600020905b815481529060010190602001808311610e0557829003601f168201915b505050505090506000610e33611989565b90506000815103610e48578192505050610e8b565b600082511115610e7d578082604051602001610e65929190612dda565b60405160208183030381529060405292505050610e8b565b610e86846119a0565b925050505b919050565b6060600b60008373ffffffffffffffffffffffffffffffffffffffff1673ffffffffffffffffffffffffffffffffffffffff168152602001908152602001600020805480602002602001604051908101604052809291908181526020018280548015610f1b57602002820191906000526020600020905b815481526020019060010190808311610f07575b50505050509050919050565b600760009054906101000a900473ffffffffffffffffffffffffffffffffffffffff1681565b600060606000806000600a60008781526020019081526020016000206001018054610f77906128fa565b905003610fb9576040517f08c379a0000000000000000000000000000000000000000000000000000000008152600401610fb090612c99565b60405180910390fd5b6000600a600087815260200190815260200160002090508060000160009054906101000a900473ffffffffffffffffffffffffffffffffffffffff16816001018260020154836003015482805461100f906128fa565b80601f016020809104026020016040519081016040528092919081815260200182805461103b906128fa565b80156110885780601f1061105d57610100808354040283529160200191611088565b820191906000526020600020905b81548152906001019060200180831161106b57829003601f168201915b505050505092509450945094509450509193509193565b6000600560008473ffffffffffffffffffffffffffffffffffffffff1673ffffffffffffffffffffffffffffffffffffffff16815260200190815260200160002060008373ffffffffffffffffffffffffffffffffffffffff1673ffffffffffffffffffffffffffffffffffffffff16815260200190815260200160002060009054906101000a900460ff16905092915050565b60007f80ac58cd000000000000000000000000000000000000000000000000000000007bffffffffffffffffffffffffffffffffffffffffffffffffffffffff1916827bffffffffffffffffffffffffffffffffffffffffffffffffffffffff191614806111fe57507f5b5e139f000000000000000000000000000000000000000000000000000000007bffffffffffffffffffffffffffffffffffffffffffffffffffffffff1916827bffffffffffffffffffffffffffffffffffffffffffffffffffffffff1916145b8061120e575061120d82611a09565b5b9050919050565b60008061122183611a73565b9050600073ffffffffffffffffffffffffffffffffffffffff168173ffffffffffffffffffffffffffffffffffffffff160361129457826040517f7e27328900000000000000000000000000000000000000000000000000000000815260040161128b91906122d6565b60405180910390fd5b80915050919050565b60006004600083815260200190815260200160002060009054906101000a900473ffffffffffffffffffffffffffffffffffffffff169050919050565b600033905090565b6112ef8383836001611ab0565b505050565b60008061130084611a73565b9050600073ffffffffffffffffffffffffffffffffffffffff168373ffffffffffffffffffffffffffffffffffffffff161461134257611341818486611c75565b5b600073ffffffffffffffffffffffffffffffffffffffff168173ffffffffffffffffffffffffffffffffffffffff16146113d357611384600085600080611ab0565b6001600360008373ffffffffffffffffffffffffffffffffffffffff1673ffffffffffffffffffffffffffffffffffffffff168152602001908152602001600020600082825403925050819055505b600073ffffffffffffffffffffffffffffffffffffffff168573ffffffffffffffffffffffffffffffffffffffff1614611456576001600360008773ffffffffffffffffffffffffffffffffffffffff1673ffffffffffffffffffffffffffffffffffffffff168152602001908152602001600020600082825401925050819055505b846002600086815260200190815260200160002060006101000a81548173ffffffffffffffffffffffffffffffffffffffff021916908373ffffffffffffffffffffffffffffffffffffffff160217905550838573ffffffffffffffffffffffffffffffffffffffff168273ffffffffffffffffffffffffffffffffffffffff167fddf252ad1be2c89b69c2b068fc378daa952ba7f163c4a11628f55a4df523b3ef60405160405180910390a4809150509392505050565b600073ffffffffffffffffffffffffffffffffffffffff168273ffffffffffffffffffffffffffffffffffffffff16036115805760006040517f64a0ae920000000000000000000000000000000000000000000000000000000081526004016115779190612240565b60405180910390fd5b600061158e838360006112f4565b9050600073ffffffffffffffffffffffffffffffffffffffff168173ffffffffffffffffffffffffffffffffffffffff16146116025760006040517f73c6ac6e0000000000000000000000000000000000000000000000000000000081526004016115f99190612240565b60405180910390fd5b505050565b806006600084815260200190815260200160002090816116279190612b7b565b507ff8e1a15aba9398e019f0b49df1a4fde98ee17ae345cb5f6b5e2c27f5033e8ce78260405161165791906122d6565b60405180910390a15050565b600073ffffffffffffffffffffffffffffffffffffffff168273ffffffffffffffffffffffffffffffffffffffff16036116d457816040517f5b08ba180000000000000000000000000000000000000000000000000000000081526004016116cb9190612240565b60405180910390fd5b80600560008573ffffffffffffffffffffffffffffffffffffffff1673ffffffffffffffffffffffffffffffffffffffff16815260200190815260200160002060008473ffffffffffffffffffffffffffffffffffffffff1673ffffffffffffffffffffffffffffffffffffffff16815260200190815260200160002060006101000a81548160ff0219169083151502179055508173ffffffffffffffffffffffffffffffffffffffff168373ffffffffffffffffffffffffffffffffffffffff167f17307eab39ab6107e8899845ad3d59bd9653f200f220920489ca2b5937696c31836040516117c591906120cf565b60405180910390a3505050565b60008373ffffffffffffffffffffffffffffffffffffffff163b1115611983578273ffffffffffffffffffffffffffffffffffffffff1663150b7a026118166112da565b8685856040518563ffffffff1660e01b81526004016118389493929190612e53565b6020604051808303816000875af192505050801561187457506040513d601f19601f820116820180604052508101906118719190612eb4565b60015b6118f8573d80600081146118a4576040519150601f19603f3d011682016040523d82523d6000602084013e6118a9565b606091505b5060008151036118f057836040517f64a0ae920000000000000000000000000000000000000000000000000000000081526004016118e79190612240565b60405180910390fd5b805181602001fd5b63150b7a0260e01b7bffffffffffffffffffffffffffffffffffffffffffffffffffffffff1916817bffffffffffffffffffffffffffffffffffffffffffffffffffffffff19161461198157836040517f64a0ae920000000000000000000000000000000000000000000000000000000081526004016119789190612240565b60405180910390fd5b505b50505050565b606060405180602001604052806000815250905090565b60606119ab82611215565b5060006119b6611989565b905060008151116119d65760405180602001604052806000815250611a01565b806119e084611d39565b6040516020016119f1929190612dda565b6040516020818303038152906040525b915050919050565b60007f01ffc9a7000000000000000000000000000000000000000000000000000000007bffffffffffffffffffffffffffffffffffffffffffffffffffffffff1916827bffffffffffffffffffffffffffffffffffffffffffffffffffffffff1916149050919050565b60006002600083815260200190815260200160002060009054906101000a900473ffffffffffffffffffffffffffffffffffffffff169050919050565b8080611ae95750600073ffffffffffffffffffffffffffffffffffffffff168273ffffffffffffffffffffffffffffffffffffffff1614155b15611c1d576000611af984611215565b9050600073ffffffffffffffffffffffffffffffffffffffff168373ffffffffffffffffffffffffffffffffffffffff1614158015611b6457508273ffffffffffffffffffffffffffffffffffffffff168173ffffffffffffffffffffffffffffffffffffffff1614155b8015611b775750611b75818461109f565b155b15611bb957826040517fa9fbf51f000000000000000000000000000000000000000000000000000000008152600401611bb09190612240565b60405180910390fd5b8115611c1b57838573ffffffffffffffffffffffffffffffffffffffff168273ffffffffffffffffffffffffffffffffffffffff167f8c5be1e5ebec7d5bd14f71427d1e84f3dd0314c0f7b2291e5b200ac8c7c3b92560405160405180910390a45b505b836004600085815260200190815260200160002060006101000a81548173ffffffffffffffffffffffffffffffffffffffff021916908373ffffffffffffffffffffffffffffffffffffffff16021790555050505050565b611c80838383611e07565b611d3457600073ffffffffffffffffffffffffffffffffffffffff168373ffffffffffffffffffffffffffffffffffffffff1603611cf557806040517f7e273289000000000000000000000000000000000000000000000000000000008152600401611cec91906122d6565b60405180910390fd5b81816040517f177e802f000000000000000000000000000000000000000000000000000000008152600401611d2b929190612ee1565b60405180910390fd5b505050565b606060006001611d4884611ec8565b01905060008167ffffffffffffffff811115611d6757611d6661234e565b5b6040519080825280601f01601f191660200182016040528015611d995781602001600182028036833780820191505090505b509050600082602001820190505b600115611dfc578080600190039150507f3031323334353637383961626364656600000000000000000000000000000000600a86061a8153600a8581611df057611def612f0a565b5b04945060008503611da7575b819350505050919050565b60008073ffffffffffffffffffffffffffffffffffffffff168373ffffffffffffffffffffffffffffffffffffffff1614158015611ebf57508273ffffffffffffffffffffffffffffffffffffffff168473ffffffffffffffffffffffffffffffffffffffff161480611e805750611e7f848461109f565b5b80611ebe57508273ffffffffffffffffffffffffffffffffffffffff16611ea68361129d565b73ffffffffffffffffffffffffffffffffffffffff16145b5b90509392505050565b600080600090507a184f03e93ff9f4daa797ed6e38ed64bf6a1f0100000000000000008310611f26577a184f03e93ff9f4daa797ed6e38ed64bf6a1f0100000000000000008381611f1c57611f1b612f0a565b5b0492506040810190505b6d04ee2d6d415b85acef81000000008310611f63576d04ee2d6d415b85acef81000000008381611f5957611f58612f0a565b5b0492506020810190505b662386f26fc100008310611f9257662386f26fc100008381611f8857611f87612f0a565b5b0492506010810190505b6305f5e1008310611fbb576305f5e1008381611fb157611fb0612f0a565b5b0492506008810190505b6127108310611fe0576127108381611fd657611fd5612f0a565b5b0492506004810190505b606483106120035760648381611ff957611ff8612f0a565b5b0492506002810190505b600a8310612012576001810190505b80915050919050565b6000604051905090565b600080fd5b600080fd5b60007fffffffff0000000000000000000000000000000000000000000000000000000082169050919050565b6120648161202f565b811461206f57600080fd5b50565b6000813590506120818161205b565b92915050565b60006020828403121561209d5761209c612025565b5b60006120ab84828501612072565b91505092915050565b60008115159050919050565b6120c9816120b4565b82525050565b60006020820190506120e460008301846120c0565b92915050565b600081519050919050565b600082825260208201905092915050565b60005b83811015612124578082015181840152602081019050612109565b60008484015250505050565b6000601f19601f8301169050919050565b600061214c826120ea565b61215681856120f5565b9350612166818560208601612106565b61216f81612130565b840191505092915050565b600060208201905081810360008301526121948184612141565b905092915050565b6000819050919050565b6121af8161219c565b81146121ba57600080fd5b50565b6000813590506121cc816121a6565b92915050565b6000602082840312156121e8576121e7612025565b5b60006121f6848285016121bd565b91505092915050565b600073ffffffffffffffffffffffffffffffffffffffff82169050919050565b600061222a826121ff565b9050919050565b61223a8161221f565b82525050565b60006020820190506122556000830184612231565b92915050565b6122648161221f565b811461226f57600080fd5b50565b6000813590506122818161225b565b92915050565b6000806040838503121561229e5761229d612025565b5b60006122ac85828601612272565b92505060206122bd858286016121bd565b9150509250929050565b6122d08161219c565b82525050565b60006020820190506122eb60008301846122c7565b92915050565b60008060006060848603121561230a57612309612025565b5b600061231886828701612272565b935050602061232986828701612272565b925050604061233a868287016121bd565b9150509250925092565b600080fd5b600080fd5b7f4e487b7100000000000000000000000000000000000000000000000000000000600052604160045260246000fd5b61238682612130565b810181811067ffffffffffffffff821117156123a5576123a461234e565b5b80604052505050565b60006123b861201b565b90506123c4828261237d565b919050565b600067ffffffffffffffff8211156123e4576123e361234e565b5b6123ed82612130565b9050602081019050919050565b82818337600083830152505050565b600061241c612417846123c9565b6123ae565b90508281526020810184848401111561243857612437612349565b5b6124438482856123fa565b509392505050565b600082601f8301126124605761245f612344565b5b8135612470848260208601612409565b91505092915050565b60008060006060848603121561249257612491612025565b5b60006124a086828701612272565b935050602084013567ffffffffffffffff8111156124c1576124c061202a565b5b6124cd8682870161244b565b92505060406124de868287016121bd565b9150509250925092565b600080604083850312156124ff576124fe612025565b5b600061250d858286016121bd565b925050602061251e85828601612272565b9150509250929050565b600060808201905061253d6000830187612231565b818103602083015261254f8186612141565b905061255e60408301856122c7565b61256b60608301846122c7565b95945050505050565b60006020828403121561258a57612589612025565b5b600061259884828501612272565b91505092915050565b6125aa816120b4565b81146125b557600080fd5b50565b6000813590506125c7816125a1565b92915050565b600080604083850312156125e4576125e3612025565b5b60006125f285828601612272565b9250506020612603858286016125b8565b9150509250929050565b600067ffffffffffffffff8211156126285761262761234e565b5b61263182612130565b9050602081019050919050565b600061265161264c8461260d565b6123ae565b90508281526020810184848401111561266d5761266c612349565b5b6126788482856123fa565b509392505050565b600082601f83011261269557612694612344565b5b81356126a584826020860161263e565b91505092915050565b600080600080608085870312156126c8576126c7612025565b5b60006126d687828801612272565b94505060206126e787828801612272565b93505060406126f8878288016121bd565b925050606085013567ffffffffffffffff8111156127195761271861202a565b5b61272587828801612680565b91505092959194509250565b600081519050919050565b600082825260208201905092915050565b6000819050602082019050919050565b6127668161219c565b82525050565b6000612778838361275d565b60208301905092915050565b6000602082019050919050565b600061279c82612731565b6127a6818561273c565b93506127b18361274d565b8060005b838110156127e25781516127c9888261276c565b97506127d483612784565b9250506001810190506127b5565b5085935050505092915050565b600060208201905081810360008301526128098184612791565b905092915050565b6000819050919050565b600061283661283161282c846121ff565b612811565b6121ff565b9050919050565b60006128488261281b565b9050919050565b600061285a8261283d565b9050919050565b61286a8161284f565b82525050565b60006020820190506128856000830184612861565b92915050565b600080604083850312156128a2576128a1612025565b5b60006128b085828601612272565b92505060206128c185828601612272565b9150509250929050565b7f4e487b7100000000000000000000000000000000000000000000000000000000600052602260045260246000fd5b6000600282049050600182168061291257607f821691505b602082108103612925576129246128cb565b5b50919050565b60006060820190506129406000830186612231565b61294d60208301856122c7565b61295a6040830184612231565b949350505050565b7f4e487b7100000000000000000000000000000000000000000000000000000000600052601160045260246000fd5b600061299c8261219c565b91507fffffffffffffffffffffffffffffffffffffffffffffffffffffffffffffffff82036129ce576129cd612962565b5b600182019050919050565b60008190508160005260206000209050919050565b60006020601f8301049050919050565b600082821b905092915050565b600060088302612a3b7fffffffffffffffffffffffffffffffffffffffffffffffffffffffffffffffff826129fe565b612a4586836129fe565b95508019841693508086168417925050509392505050565b6000612a78612a73612a6e8461219c565b612811565b61219c565b9050919050565b6000819050919050565b612a9283612a5d565b612aa6612a9e82612a7f565b848454612a0b565b825550505050565b600090565b612abb612aae565b612ac6818484612a89565b505050565b5b81811015612aea57612adf600082612ab3565b600181019050612acc565b5050565b601f821115612b2f57612b00816129d9565b612b09846129ee565b81016020851015612b18578190505b612b2c612b24856129ee565b830182612acb565b50505b505050565b600082821c905092915050565b6000612b5260001984600802612b34565b1980831691505092915050565b6000612b6b8383612b41565b9150826002028217905092915050565b612b84826120ea565b67ffffffffffffffff811115612b9d57612b9c61234e565b5b612ba782546128fa565b612bb2828285612aee565b600060209050601f831160018114612be55760008415612bd3578287015190505b612bdd8582612b5f565b865550612c45565b601f198416612bf3866129d9565b60005b82811015612c1b57848901518255600182019150602085019450602081019050612bf6565b86831015612c385784890151612c34601f891682612b41565b8355505b6001600288020188555050505b505050505050565b7f426f6f6b20646f6573206e6f7420657869737400000000000000000000000000600082015250565b6000612c836013836120f5565b9150612c8e82612c4d565b602082019050919050565b60006020820190508181036000830152612cb281612c76565b9050919050565b6000606082019050612cce6000830186612231565b612cdb6020830185612231565b612ce860408301846122c7565b949350505050565b600081519050612cff816125a1565b92915050565b600060208284031215612d1b57612d1a612025565b5b6000612d2984828501612cf0565b91505092915050565b7f546f6b656e207472616e73666572206661696c65640000000000000000000000600082015250565b6000612d686015836120f5565b9150612d7382612d32565b602082019050919050565b60006020820190508181036000830152612d9781612d5b565b9050919050565b600081905092915050565b6000612db4826120ea565b612dbe8185612d9e565b9350612dce818560208601612106565b80840191505092915050565b6000612de68285612da9565b9150612df28284612da9565b91508190509392505050565b600081519050919050565b600082825260208201905092915050565b6000612e2582612dfe565b612e2f8185612e09565b9350612e3f818560208601612106565b612e4881612130565b840191505092915050565b6000608082019050612e686000830187612231565b612e756020830186612231565b612e8260408301856122c7565b8181036060830152612e948184612e1a565b905095945050505050565b600081519050612eae8161205b565b92915050565b600060208284031215612eca57612ec9612025565b5b6000612ed884828501612e9f565b91505092915050565b6000604082019050612ef66000830185612231565b612f0360208301846122c7565b9392505050565b7f4e487b7100000000000000000000000000000000000000000000000000000000600052601260045260246000fdfea2646970667358221220cf1e1b94b7cf054121e4ea6bf6fc880ab80491ca13b22a355199687d4d58b27c64736f6c63430008180033",
  "linkReferences": {},
  "deployedLinkReferences": {}
}