{
  "_format": "hh-sol-artifact-1",
  "contractName": "PFSwap",
  "sourceName": "contracts/PFSwap.sol",
  "abi": [
    {
      "inputs": [
        {
          "internalType": "address",
          "name": "_poxAddress",
          "type": "address"
        }
      ],
      "stateMutability": "nonpayable",
      "type": "constructor"
    },
    {
      "anonymous": false,
      "inputs": [
        {
          "indexed": true,
          "internalType": "address",
          "name": "user",
          "type": "address"
        },
        {
          "indexed": true,
          "internalType": "address",
          "name": "tokenFrom",
          "type": "address"
        },
        {
          "indexed": true,
          "internalType": "address",
          "name": "tokenTo",
          "type": "address"
        },
        {
          "indexed": false,
          "internalType": "uint256",
          "name": "amount",
          "type": "uint256"
        }
      ],
      "name": "Swap",
      "type": "event"
    },
    {
      "anonymous": false,
      "inputs": [
        {
          "indexed": true,
          "internalType": "address",
          "name": "user",
          "type": "address"
        },
        {
          "indexed": true,
          "internalType": "address",
          "name": "token",
          "type": "address"
        },
        {
          "indexed": false,
          "internalType": "uint256",
          "name": "amount",
          "type": "uint256"
        }
      ],
      "name": "Withdraw",
      "type": "event"
    },
    {
      "inputs": [],
      "name": "depositETH",
      "outputs": [],
      "stateMutability": "payable",
      "type": "function"
    },
    {
      "inputs": [
        {
          "internalType": "uint256",
          "name": "_amount",
          "type": "uint256"
        }
      ],
      "name": "depositPOX",
      "outputs": [],
      "stateMutability": "nonpayable",
      "type": "function"
    },
    {
      "inputs": [],
      "name": "ethPool",
      "outputs": [
        {
          "internalType": "uint256",
          "name": "",
          "type": "uint256"
        }
      ],
      "stateMutability": "view",
      "type": "function"
    },
    {
      "inputs": [],
      "name": "owner",
      "outputs": [
        {
          "internalType": "address",
          "name": "",
          "type": "address"
        }
      ],
      "stateMutability": "view",
      "type": "function"
    },
    {
      "inputs": [],
      "name": "poxAddress",
      "outputs": [
        {
          "internalType": "address",
          "name": "",
          "type": "address"
        }
      ],
      "stateMutability": "view",
      "type": "function"
    },
    {
      "inputs": [
        {
          "internalType": "address",
          "name": "",
          "type": "address"
        }
      ],
      "name": "poxPool",
      "outputs": [
        {
          "internalType": "uint256",
          "name": "",
          "type": "uint256"
        }
      ],
      "stateMutability": "view",
      "type": "function"
    },
    {
      "inputs": [],
      "name": "swapETHtoPOX",
      "outputs": [],
      "stateMutability": "payable",
      "type": "function"
    },
    {
      "inputs": [
        {
          "internalType": "uint256",
          "name": "_amount",
          "type": "uint256"
        }
      ],
      "name": "swapPOXtoETH",
      "outputs": [],
      "stateMutability": "nonpayable",
      "type": "function"
    },
    {
      "inputs": [
        {
          "internalType": "uint256",
          "name": "_amount",
          "type": "uint256"
        }
      ],
      "name": "withdrawETH",
      "outputs": [],
      "stateMutability": "nonpayable",
      "type": "function"
    },
    {
      "inputs": [
        {
          "internalType": "uint256",
          "name": "_amount",
          "type": "uint256"
        }
      ],
      "name": "withdrawPOX",
      "outputs": [],
      "stateMutability": "nonpayable",
      "type": "function"
    }
  ],
  "bytecode": "0x60806040523480156200001157600080fd5b5060405162001afa38038062001afa833981810160405281019062000037919062000129565b806000806101000a81548173ffffffffffffffffffffffffffffffffffffffff021916908373ffffffffffffffffffffffffffffffffffffffff16021790555033600160006101000a81548173ffffffffffffffffffffffffffffffffffffffff021916908373ffffffffffffffffffffffffffffffffffffffff160217905550506200015b565b600080fd5b600073ffffffffffffffffffffffffffffffffffffffff82169050919050565b6000620000f182620000c4565b9050919050565b6200010381620000e4565b81146200010f57600080fd5b50565b6000815190506200012381620000f8565b92915050565b600060208284031215620001425762000141620000bf565b5b6000620001528482850162000112565b91505092915050565b61198f806200016b6000396000f3fe6080604052600436106100915760003560e01c8063c63482be11610059578063c63482be14610167578063cc61a48714610171578063f14210a6146101ae578063f16673a4146101d7578063f6326fb31461020257610091565b806337708200146100965780634a43930b146100bf5780638bab59db146100e85780638da5cb5b14610113578063a52f164d1461013e575b600080fd5b3480156100a257600080fd5b506100bd60048036038101906100b89190611132565b61020c565b005b3480156100cb57600080fd5b506100e660048036038101906100e19190611132565b610446565b005b3480156100f457600080fd5b506100fd610739565b60405161010a91906111a0565b60405180910390f35b34801561011f57600080fd5b5061012861075d565b60405161013591906111a0565b60405180910390f35b34801561014a57600080fd5b5061016560048036038101906101609190611132565b610783565b005b61016f610b44565b005b34801561017d57600080fd5b50610198600480360381019061019391906111e7565b610ebb565b6040516101a59190611223565b60405180910390f35b3480156101ba57600080fd5b506101d560048036038101906101d09190611132565b610ed3565b005b3480156101e357600080fd5b506101ec611093565b6040516101f99190611223565b60405180910390f35b61020a611099565b005b6000811161024f576040517f08c379a00000000000000000000000000000000000000000000000000000000081526004016102469061129b565b60405180910390fd5b8060008054906101000a900473ffffffffffffffffffffffffffffffffffffffff1673ffffffffffffffffffffffffffffffffffffffff166370a08231336040518263ffffffff1660e01b81526004016102a991906111a0565b602060405180830381865afa1580156102c6573d6000803e3d6000fd5b505050506040513d601f19601f820116820180604052508101906102ea91906112d0565b101561032b576040517f08c379a000000000000000000000000000000000000000000000000000000000815260040161032290611349565b60405180910390fd5b60008054906101000a900473ffffffffffffffffffffffffffffffffffffffff1673ffffffffffffffffffffffffffffffffffffffff166323b872dd3330846040518463ffffffff1660e01b815260040161038893929190611369565b6020604051808303816000875af11580156103a7573d6000803e3d6000fd5b505050506040513d601f19601f820116820180604052508101906103cb91906113d8565b5080600360008060009054906101000a900473ffffffffffffffffffffffffffffffffffffffff1673ffffffffffffffffffffffffffffffffffffffff1673ffffffffffffffffffffffffffffffffffffffff168152602001908152602001600020600082825461043c9190611434565b9250508190555050565b600160009054906101000a900473ffffffffffffffffffffffffffffffffffffffff1673ffffffffffffffffffffffffffffffffffffffff163373ffffffffffffffffffffffffffffffffffffffff16146104d6576040517f08c379a00000000000000000000000000000000000000000000000000000000081526004016104cd906114b4565b60405180910390fd5b80600360008060009054906101000a900473ffffffffffffffffffffffffffffffffffffffff1673ffffffffffffffffffffffffffffffffffffffff1673ffffffffffffffffffffffffffffffffffffffff168152602001908152602001600020541015610579576040517f08c379a000000000000000000000000000000000000000000000000000000000815260040161057090611520565b60405180910390fd5b80600360008060009054906101000a900473ffffffffffffffffffffffffffffffffffffffff1673ffffffffffffffffffffffffffffffffffffffff1673ffffffffffffffffffffffffffffffffffffffff16815260200190815260200160002060008282546105e99190611540565b9250508190555060008054906101000a900473ffffffffffffffffffffffffffffffffffffffff1673ffffffffffffffffffffffffffffffffffffffff1663a9059cbb600160009054906101000a900473ffffffffffffffffffffffffffffffffffffffff16836040518363ffffffff1660e01b815260040161066d929190611574565b6020604051808303816000875af115801561068c573d6000803e3d6000fd5b505050506040513d601f19601f820116820180604052508101906106b091906113d8565b5060008054906101000a900473ffffffffffffffffffffffffffffffffffffffff1673ffffffffffffffffffffffffffffffffffffffff163373ffffffffffffffffffffffffffffffffffffffff167f9b1bfa7fa9ee420a16e124f794c35ac9f90472acc99140eb2f6447c714cad8eb8360405161072e9190611223565b60405180910390a350565b60008054906101000a900473ffffffffffffffffffffffffffffffffffffffff1681565b600160009054906101000a900473ffffffffffffffffffffffffffffffffffffffff1681565b600081116107c6576040517f08c379a00000000000000000000000000000000000000000000000000000000081526004016107bd9061129b565b60405180910390fd5b80600360008060009054906101000a900473ffffffffffffffffffffffffffffffffffffffff1673ffffffffffffffffffffffffffffffffffffffff1673ffffffffffffffffffffffffffffffffffffffff168152602001908152602001600020541015610869576040517f08c379a0000000000000000000000000000000000000000000000000000000008152600401610860906115e9565b60405180910390fd5b6000600254116108ae576040517f08c379a00000000000000000000000000000000000000000000000000000000081526004016108a590611655565b60405180910390fd5b6000600360008060009054906101000a900473ffffffffffffffffffffffffffffffffffffffff1673ffffffffffffffffffffffffffffffffffffffff1673ffffffffffffffffffffffffffffffffffffffff168152602001908152602001600020546002548361091f9190611675565b61092991906116e6565b905060008054906101000a900473ffffffffffffffffffffffffffffffffffffffff1673ffffffffffffffffffffffffffffffffffffffff166323b872dd3330856040518463ffffffff1660e01b815260040161098893929190611369565b6020604051808303816000875af11580156109a7573d6000803e3d6000fd5b505050506040513d601f19601f820116820180604052508101906109cb91906113d8565b503373ffffffffffffffffffffffffffffffffffffffff166108fc829081150290604051600060405180830381858888f19350505050158015610a12573d6000803e3d6000fd5b5081600360008060009054906101000a900473ffffffffffffffffffffffffffffffffffffffff1673ffffffffffffffffffffffffffffffffffffffff1673ffffffffffffffffffffffffffffffffffffffff1681526020019081526020016000206000828254610a839190611434565b925050819055508060026000828254610a9c9190611540565b92505081905550600073ffffffffffffffffffffffffffffffffffffffff1660008054906101000a900473ffffffffffffffffffffffffffffffffffffffff1673ffffffffffffffffffffffffffffffffffffffff163373ffffffffffffffffffffffffffffffffffffffff167fffebebfb273923089a3ed6bac0fd4686ac740307859becadeb82f998e30db61485604051610b389190611223565b60405180910390a45050565b60003411610b87576040517f08c379a0000000000000000000000000000000000000000000000000000000008152600401610b7e90611789565b60405180910390fd5b346002541015610bcc576040517f08c379a0000000000000000000000000000000000000000000000000000000008152600401610bc3906117f5565b60405180910390fd5b6000600360008060009054906101000a900473ffffffffffffffffffffffffffffffffffffffff1673ffffffffffffffffffffffffffffffffffffffff1673ffffffffffffffffffffffffffffffffffffffff1681526020019081526020016000205411610c6f576040517f08c379a0000000000000000000000000000000000000000000000000000000008152600401610c6690611861565b60405180910390fd5b6000600254600360008060009054906101000a900473ffffffffffffffffffffffffffffffffffffffff1673ffffffffffffffffffffffffffffffffffffffff1673ffffffffffffffffffffffffffffffffffffffff1681526020019081526020016000205434610ce09190611675565b610cea91906116e6565b905060008054906101000a900473ffffffffffffffffffffffffffffffffffffffff1673ffffffffffffffffffffffffffffffffffffffff1663a9059cbb33836040518363ffffffff1660e01b8152600401610d47929190611574565b6020604051808303816000875af1158015610d66573d6000803e3d6000fd5b505050506040513d601f19601f82011682018060405250810190610d8a91906113d8565b503460026000828254610d9d9190611434565b9250508190555080600360008060009054906101000a900473ffffffffffffffffffffffffffffffffffffffff1673ffffffffffffffffffffffffffffffffffffffff1673ffffffffffffffffffffffffffffffffffffffff1681526020019081526020016000206000828254610e149190611540565b9250508190555060008054906101000a900473ffffffffffffffffffffffffffffffffffffffff1673ffffffffffffffffffffffffffffffffffffffff16600073ffffffffffffffffffffffffffffffffffffffff163373ffffffffffffffffffffffffffffffffffffffff167fffebebfb273923089a3ed6bac0fd4686ac740307859becadeb82f998e30db61434604051610eb09190611223565b60405180910390a450565b60036020528060005260406000206000915090505481565b600160009054906101000a900473ffffffffffffffffffffffffffffffffffffffff1673ffffffffffffffffffffffffffffffffffffffff163373ffffffffffffffffffffffffffffffffffffffff1614610f63576040517f08c379a0000000000000000000000000000000000000000000000000000000008152600401610f5a906114b4565b60405180910390fd5b806002541015610fa8576040517f08c379a0000000000000000000000000000000000000000000000000000000008152600401610f9f906118cd565b60405180910390fd5b8060026000828254610fba9190611540565b92505081905550600160009054906101000a900473ffffffffffffffffffffffffffffffffffffffff1673ffffffffffffffffffffffffffffffffffffffff166108fc829081150290604051600060405180830381858888f19350505050158015611029573d6000803e3d6000fd5b50600073ffffffffffffffffffffffffffffffffffffffff163373ffffffffffffffffffffffffffffffffffffffff167f9b1bfa7fa9ee420a16e124f794c35ac9f90472acc99140eb2f6447c714cad8eb836040516110889190611223565b60405180910390a350565b60025481565b600034116110dc576040517f08c379a00000000000000000000000000000000000000000000000000000000081526004016110d390611939565b60405180910390fd5b34600260008282546110ee9190611434565b92505081905550565b600080fd5b6000819050919050565b61110f816110fc565b811461111a57600080fd5b50565b60008135905061112c81611106565b92915050565b600060208284031215611148576111476110f7565b5b60006111568482850161111d565b91505092915050565b600073ffffffffffffffffffffffffffffffffffffffff82169050919050565b600061118a8261115f565b9050919050565b61119a8161117f565b82525050565b60006020820190506111b56000830184611191565b92915050565b6111c48161117f565b81146111cf57600080fd5b50565b6000813590506111e1816111bb565b92915050565b6000602082840312156111fd576111fc6110f7565b5b600061120b848285016111d2565b91505092915050565b61121d816110fc565b82525050565b60006020820190506112386000830184611214565b92915050565b600082825260208201905092915050565b7f416d6f756e74206d7573742062652067726561746572207468616e2030210000600082015250565b6000611285601e8361123e565b91506112908261124f565b602082019050919050565b600060208201905081810360008301526112b481611278565b9050919050565b6000815190506112ca81611106565b92915050565b6000602082840312156112e6576112e56110f7565b5b60006112f4848285016112bb565b91505092915050565b7f496e73756666696369656e742062616c616e6365210000000000000000000000600082015250565b600061133360158361123e565b915061133e826112fd565b602082019050919050565b6000602082019050818103600083015261136281611326565b9050919050565b600060608201905061137e6000830186611191565b61138b6020830185611191565b6113986040830184611214565b949350505050565b60008115159050919050565b6113b5816113a0565b81146113c057600080fd5b50565b6000815190506113d2816113ac565b92915050565b6000602082840312156113ee576113ed6110f7565b5b60006113fc848285016113c3565b91505092915050565b7f4e487b7100000000000000000000000000000000000000000000000000000000600052601160045260246000fd5b600061143f826110fc565b915061144a836110fc565b925082820190508082111561146257611461611405565b5b92915050565b7f4e6f74204f776e6572203a300000000000000000000000000000000000000000600082015250565b600061149e600c8361123e565b91506114a982611468565b602082019050919050565b600060208201905081810360008301526114cd81611491565b9050919050565b7f496e73756666696369656e7420504f582062616c616e63650000000000000000600082015250565b600061150a60188361123e565b9150611515826114d4565b602082019050919050565b60006020820190508181036000830152611539816114fd565b9050919050565b600061154b826110fc565b9150611556836110fc565b925082820390508181111561156e5761156d611405565b5b92915050565b60006040820190506115896000830185611191565b6115966020830184611214565b9392505050565b7f4e6f7420656e6f75676820696e2074686520706f6f6c203a2929000000000000600082015250565b60006115d3601a8361123e565b91506115de8261159d565b602082019050919050565b60006020820190508181036000830152611602816115c6565b9050919050565b7f536f727279204e6f2045544820506f6f6c203a2f000000000000000000000000600082015250565b600061163f60148361123e565b915061164a82611609565b602082019050919050565b6000602082019050818103600083015261166e81611632565b9050919050565b6000611680826110fc565b915061168b836110fc565b9250828202611699816110fc565b915082820484148315176116b0576116af611405565b5b5092915050565b7f4e487b7100000000000000000000000000000000000000000000000000000000600052601260045260246000fd5b60006116f1826110fc565b91506116fc836110fc565b92508261170c5761170b6116b7565b5b828204905092915050565b7f53656e64204554482077697468207468652073616d6520616d6f756e7420617360008201527f20746865207377617020616d6f756e7400000000000000000000000000000000602082015250565b600061177360308361123e565b915061177e82611717565b604082019050919050565b600060208201905081810360008301526117a281611766565b9050919050565b7f4e6f7420656e6f75676820696e2074686520506f6f6c203a2900000000000000600082015250565b60006117df60198361123e565b91506117ea826117a9565b602082019050919050565b6000602082019050818103600083015261180e816117d2565b9050919050565b7f536f727279204e6f20504f5820706f6f6c203a2f000000000000000000000000600082015250565b600061184b60148361123e565b915061185682611815565b602082019050919050565b6000602082019050818103600083015261187a8161183e565b9050919050565b7f496e73756666696369656e74204554482062616c616e63650000000000000000600082015250565b60006118b760188361123e565b91506118c282611881565b602082019050919050565b600060208201905081810360008301526118e6816118aa565b9050919050565b7f53656e6420736f6d657468696e672062726f203a2d0000000000000000000000600082015250565b600061192360158361123e565b915061192e826118ed565b602082019050919050565b6000602082019050818103600083015261195281611916565b905091905056fea2646970667358221220004c75aefd91532932972352878eec4a0bc4e15fc843e122e62d36cc73e5760264736f6c63430008180033",
  "linkReferences": {},
  "deployedLinkReferences": {}
}